:020000040800F2
:1000000000000220B9020008C1020008C502000871
:10001000390300083D0300088503000800000000C4
:10002000000000000000000000000000CD030008F8
:10003000D103000800000000D5030008C91500081E
:10004000E9030008E9030008E9030008E9030008E0
:10005000E9030008E9030008E9030008E9030008D0
:10006000E9030008E9030008E9030008E9030008C0
:10007000E9030008E9030008E9030008E9030008B0
:10008000E9030008E9030008E9030008E9030008A0
:10009000E9030008E9030008E9030008E903000890
:1000A000E9030008E9030008E9030008E903000880
:1000B000E9030008E9030008E9030008E903000870
:1000C000E9030008E9030008E9030008E903000860
:1000D000E9030008E9030008E9030008E903000850
:1000E000E9030008E9030008E9030008E903000840
:1000F000E9030008E9030008E9030008E903000830
:10010000E9030008E9030008E9030008E90300081F
:10011000E9030008E9030008E9030008E90300080F
:10012000E9030008E9030008E9030008E9030008FF
:10013000E90300080000000000000000E9030008D7
:10014000E9030008E9030008E9030008E9030008DF
:10015000E9030008E9030008E9030008E9030008CF
:10016000E9030008E9030008E9030008E9030008BF
:10017000E9030008E9030008000000000000000097
:10018000E9030008E903000800B583B001F0C6F8F0
:10019000384B394A1360394A136039490CE00A6810
:1001A0004B6801F10C04886803E01168196004339E
:1001B00004329842F9D82146324B9942EFD32E4B64
:1001C0001A68314B9A4204D12C4B1A682F4B9A4231
:1001D00000D0FEE7274B2E4A13602E4A13602E4BA9
:1001E0000AE0194651F8082B5B6802E00020106015
:1001F00004329A42FAD30B46284A9342F1D3244B55
:100200001B6813B9234B1B6803B1FEE701F02EFAFC
:1002100001A8694601F00EF8214C224B1C1BA410CA
:10022000002504E01E4B53F8253098470135AC42B9
:10023000F8DC1D4C1D4B1C1BA410002504E01A4BC0
:1002400053F8253098470135AC42F8DC0198009905
:1002500001F014FA0546164C164B1C1BA41004E0C2
:10026000013C134B53F824309847002CF8DC284607
:1002700000F0B2FFBABADECA00000020740000200D
:10028000EC030008040400087856341232547698BF
:10029000780000201801002004040008140400085D
:1002A00014040008140400081404000814040008CE
:1002B000140400081404000808B5FFF765FF00BF28
:1002C00000BEFEE71EF0040F0CBFEFF30880EFF353
:1002D00009807146414A10472DE9F04182B0044639
:1002E0008846134B5E6B9D6B9F6A1B6B13F0020F6E
:1002F0000DD00F4BDB6A002B09DA4BF6AB6101F036
:1003000091F820B14FF00042094BDA620CE0094845
:1003100000F0A4FFCDF800802046394632462B4637
:1003200001F008F800BEFEE702B0BDE8F08100BFB2
:1003300000ED00E0CC21000800BEFEE71EF0040F37
:100340000CBFEFF30880EFF309807146244A104791
:100350002DE9F04182B007468846084B5D6B9C6BE7
:100360009E6A074800F07AFFCDF800803846314693
:100370002A46234600F0DEFF00BEFEE700ED00E067
:10038000DC2100081EF0040F0CBFEFF30880EFF330
:1003900009807146134A10472DE9F04182B00746A3
:1003A0008846084B5D6B9C6B9E6A074800F056FFC1
:1003B000CDF80080384631462A46234600F0BAFF81
:1003C00000BEFEE700ED00E0E821000800BEFEE709
:1003D00000BEFEE700BEFEE770470000D90200083D
:0C03E000510300089903000800BEFEE76E
:1003EC007822000800000020780000207822000805
:1003FC000000001000000010780000201C010020FC
:08040C000000001000000010C8
:1004140010B5044600F0C4FE064BA3FB003080096F
:1004240000F092F84FF0FF302146002200F04AF825
:10043400002010BDD34D621008B50B4B1A6842F46E
:1004440000721A601A6842F480621A601A6842F4F0
:1004540080721A60032000F017F80F20FFF7D8FF0E
:1004640001F040F9002008BD003C0240024A136834
:1004740001331360704700BF7C000020014B1868F3
:10048400704700BF7C00002010B50446C31E042B37
:1004940003D90A48A42100F0D3FE04F00700084A57
:1004A400D36823F4E0631B041B0C43EA002040F0F0
:1004B400BF6040F40030D06010BD00BF601F000872
:1004C40000ED00E070B504460E4615460F2A03D928
:1004D4001A48BC2100F0B4FE0F2E03D91748BD21E1
:1004E40000F0AEFE164BDB68C3F30223C3F1070230
:1004F400042A28BF0422191D062901D9D81E00E0A8
:100504000020012303FA02F2013A324002FA00F118
:1005140083405A1E2A400A43002C06DA04F00F04D2
:100524001201D2B2074B1A5570BD1201D2B204F1B6
:10053400604404F5614484F8002370BD601F000822
:1005440000ED00E014ED00E00138B0F1807F0AD244
:10055400064B5860F021064A82F823100020986068
:1005640007221A6070470120704700BF10E000E0C6
:1005740000ED00E010B50446042805D020B1094878
:1005840040F2B31100F05CFE042C05D1064A136856
:1005940043F00403136010BD034A136823F00403FB
:1005A400136010BD601F000810E000E02DE9F04F5B
:1005B40083B080460F46A04B984223D003F5806356
:1005C40098421FD003F5806398421BD003F58063E3
:1005D400984217D003F58063984213D003F58063E3
:1005E40098420FD003F5806398420BD003F58063E3
:1005F400984207D003F58063984203D08F48C52101
:1006040000F01EFE3B881BB98C48C62100F018FE82
:100614007B68012B22D9112B20D0022B1ED0122B48
:100624001CD0874A934219D002F58012934215D008
:1006340002F58012934211D0A2F5F81293420DD024
:1006440002F58012934209D002F58012934205D03C
:10065400032B03D07948C72100F0F2FDBB68022BBD
:1006640003D97648C82100F0EBFD002424E1A1461B
:100674000125A5403B6803EA050AAA4540F01B8111
:100684007B68022B01D0122B45D13B699BB3092B0C
:1006940031D083B37BB373B36BB3012B2BD02AD08C
:1006A400022B28D027D026D0032B24D0042B22D0F1
:1006B40021D020D0052B1ED01DD0092B1BD0062BFA
:1006C40019D0092B17D0072B15D014D013D0082B11
:1006D40011D010D00FD0092B0DD00CD00A2B0AD07A
:1006E40009D00C2B07D006D005D00F2B03D05348CC
:1006F400D92100F0A5FDE608083658F8261004F0C4
:10070400070080000F23834021EA03023B698340F2
:10071400134348F82630D8F800304FEA440B032638
:1007240006FA0BF6F64306EA03027B6803F00303BA
:1007340003FA0BF31343C8F800307B685A1E012AEE
:1007440003D9112B01D0122B1CD1FB68032B03D925
:100754003A48EC2100F074FDD8F8083006EA0302A8
:10076400FB6803FA0BF31343C8F80830D8F80430D5
:1007740023EA05037D68C5F3001505FA09F51D4351
:10078400C8F80450D8F80C303340BE6806FA0BF6AB
:100794001E43C8F80C607B6813F0805F00F08B8008
:1007A400284B5A6C42F480425A645B6C03F48043D5
:1007B4000193019BA308991C234A52F8211004F0C9
:1007C400030080000F22824021EA02011A4A904568
:1007D4003CD002F5806290452BD002F580629045B2
:1007E40025D002F5806290451FD002F580629045C5
:1007F40019D002F58062904513D002F580629045CD
:100804000DD002F58062904507D002F580629045D4
:1008140001D108221BE0092219E0072217E0062271
:1008240015E0052213E0042211E003220FE0022266
:100834000DE001220BE000BF00000240941F0008FD
:1008440000001110003802400038014000228240AC
:100854000A4302331B4941F823201B4B1A686FEAF1
:100864000A0303EA0201786810F4803F01D04AEADF
:100874000201154A1160526803EA0201786810F413
:10088400003F01D04AEA02010F4A5160926803EA2C
:100894000201786810F4801F01D04AEA02010A4A72
:1008A4009160D2681340796811F4001F01D04AEABC
:1008B4000203054AD36001340F2C7FF6D8AE03B08F
:1008C400BDE8F08F00380140003C014070B5064699
:1008D40015460C4621B9094840F2B11100F0B0FCAC
:1008E400012D04D905484FF4D97100F0A9FC0DB1CC
:1008F400B46170BD2404B46170BD00BF941F0008CE
:1009040030B583B0044603680F2B04D9B2484FF4C2
:10091400807100F095FC236813F0010F5FD06368C9
:10092400012B06D9052B04D0AB4840F2051100F089
:1009340087FCAA4B9B6803F00C03042B0AD0A74B3B
:100944009B6803F00C03082B0DD1A44B5B6813F4D4
:10095400800F08D0A14B1B6813F4003F3FD063689D
:10096400002B3CD1F3E100229D4B1A70FFF786FD6A
:10097400054607E0FFF782FD401B41F288339842A9
:1009840000F2E781954B1B6813F4003FF2D1227902
:10099400934B1A7063688BB1FFF770FD054607E04F
:1009A400FFF76CFD401B41F28833984200F2D3817B
:1009B4008A4B1B6813F4003FF2D010E0FFF75EFD92
:1009C400054607E0FFF75AFD401B41F28833984281
:1009D40000F2C381814B1B6813F4003FF2D12368FA
:1009E40013F0020F6AD0E368012B04D97A484FF45C
:1009F400A37100F025FC23691F2B04D9764840F22B
:100A0400471100F01DFC754B9B6813F00C0F0AD0C6
:100A1400724B9B6803F00C03082B1BD16F4B5B6874
:100A240013F4800F16D16D4B1B6813F0020F03D023
:100A3400E368012B40F093816848036823F0F801D0
:100A44002369F82292FAA2F2B2FA82F293400B439B
:100A5400036033E0E368FBB10122624B1A60FFF7E5
:100A64000DFD054605E0FFF709FD401B642800F273
:100A740078815A4B1B6813F0020FF4D0574803686F
:100A840023F0F8012369F82292FAA2F2B2FA82F270
:100A940093400B43036011E00022524B1A60FFF7AE
:100AA400EDFC054605E0FFF7E9FC401B642800F275
:100AB4005A814A4B1B6813F0020FF4D1236813F0D8
:100AC400080F2ED06369012B04D9434840F28711E3
:100AD40000F0B6FB636993B10122434B1A60FFF740
:100AE400CDFC054605E0FFF7C9FC401B642800F275
:100AF4003C813A4B5B6F13F0020FF4D011E00022FB
:100B0400394B1A60FFF7BAFC054605E0FFF7B6FC5F
:100B1400401B642800F22B81304B5B6F13F0020FF3
:100B2400F4D1236813F0040F71D0A368012B06D904
:100B3400052B04D0284840F2B11100F081FB274B6B
:100B44001A6C42F080521A641B6C03F080530193B8
:100B5400019B264A136843F480731360FFF78EFCED
:100B6400054605E0FFF78AFC401B642800F201817A
:100B74001E4B1B6813F4807FF4D000221C4B1A70A8
:100B8400FFF77CFC054607E0FFF778FC401B41F2C9
:100B94008833984200F2EF80104B1B6F13F0020F62
:100BA400F2D1227A124B1A70A3688BB1FFF766FC5C
:100BB400054607E0FFF762FC401B41F28833984288
:100BC40000F2DB80054B1B6F13F0020FF2D01EE026
:100BD400FFF754FC054615E0D41F00080038024016
:100BE4000238024000004742800E47420070004035
:100BF40070380240FFF742FC401B41F288339842B0
:100C040000F2BD80644B1B6F13F0020FF2D1A36995
:100C1400022B04D9614840F2F51100F011FBA369DD
:100C2400002B00F0AE805C4A926802F00C02082AA5
:100C340000F0A980022B77D1E3693BB1B3F5800FB3
:100C440004D056484FF4FF7100F0FAFA236A3F2BA0
:100C540004D9524840F2FF1100F0F2FA636AC03B33
:100C6400F02B04D94D484FF4007100F0E9FAA36A5F
:100C7400022B0AD0042B08D0062B06D0082B04D054
:100C8400464840F2012100F0DBFAE36A043B0B2BF7
:100C940004D9424840F2022100F0D2FA0022404B2B
:100CA4001A60FFF7EBFB054604E0FFF7E7FB401B88
:100CB40064286AD8384B1B6813F0007FF5D1E269C9
:100CC400236A1A43636A47F6C07191FAA1F1B1FA33
:100CD40081F18B401A43A36A5B08013B4FF4403116
:100CE40091FAA1F1B1FA81F18B401343E26A4FF01A
:100CF400706191FAA1F1B1FA81F18A401343264A55
:100D040053600122264B1A60FFF7B8FB044604E047
:100D1400FFF7B4FB001B642839D81F4B1B6813F082
:100D2400007FF5D0002035E000221D4B1A60FFF74C
:100D3400A5FB044604E0FFF7A1FB001B642828D8A8
:100D4400154B1B6813F0007FF5D1002022E0012031
:100D540020E003201EE003201CE003201AE0012011
:100D640018E0032016E0032014E0032012E003201F
:100D740010E003200EE003200CE003200AE003202F
:100D840008E0002006E0012004E0032002E0032044
:100D940000E0032003B030BD00380240D41F000837
:100DA4006000474270B504460D460368013B0E2BB4
:100DB40004D995484FF4187100F042FA072D04D96C
:100DC400914840F2612100F03BFA904B1B6803F01C
:100DD4000F03AB4280F09880EAB28C4B1A701B6808
:100DE40003F00F03AB4240F06B81236813F0020F52
:100DF4001DD0A368A3B1802B12D0902B10D0A02BB0
:100E04000ED0B02B0CD0C02B0AD0D02B08D0E02BA6
:100E140006D0F02B04D07C4840F2772100F010FA81
:100E24007B498B6823F0F002A36813438B6023682B
:100E340013F0010F00F002816368032B04D9724898
:100E440040F27E2100F0FCF96268012A05D1704B62
:100E54001B6813F4003F0FD134E1931E012B05D816
:100E64006B4B1B6813F0007F06D12DE1684B1B68A8
:100E740013F0020F00F02A8165498B6823F0030305
:100E840013438B60FFF7FAFA05466368012B0FD111
:100E940007E0FFF7F3FA401B41F28833984200F26F
:100EA40017815B4B9B6803F00C03042BF1D1C5E065
:100EB400022B0FD107E0FFF7E1FA401B41F2883320
:100EC400984200F20781524B9B6803F00C03082BF5
:100ED400F1D1B3E0032B11D14D4B9B68FFF7CEFA50
:100EE400401B41F288339842F6D9F5E0FFF7C6FA81
:100EF400401B41F28833984200F2F080444B9B68D7
:100F040013F00C0FF2D199E0236813F0020F1DD0F7
:100F1400A368A3B1802B12D0902B10D0A02B0ED09D
:100F2400B02B0CD0C02B0AD0D02B08D0E02B06D08D
:100F3400F02B04D0344840F2D12100F081F9344937
:100F44008B6823F0F002A36813438B60236813F0CB
:100F5400010F6BD06368032B04D92B484FF436710F
:100F640000F06EF96268012A05D1294B1B6813F45D
:100F7400003F0FD1B4E0931E012B05D8244B1B680E
:100F840013F0007F06D1ADE0214B1B6813F0020F74
:100F940000F0AA801E498B6823F0030313438B607F
:100FA400FFF76CFA06466368012B0FD107E0FFF7E1
:100FB40065FA801B41F28833984200F29780144B03
:100FC4009B6803F00C03042BF1D12FE0022B0FD10B
:100FD40007E0FFF753FA801B41F28833984200F28E
:100FE40087800B4B9B6803F00C03082BF1D11DE0A9
:100FF400032B16D1064B9B68FFF740FA801B41F286
:1010040088339842F6D975E0D41F0008003C0240AA
:1010140000380240FFF732FA801B41F288339842CD
:101024006AD8374B9B6813F00C0FF3D1EAB2354BF7
:101034001A701B6803F00F03AB425FD1236813F0EF
:10104400040F19D0E36883B1B3F5805F0DD0B3F515
:10105400A05F0AD0B3F5C05F07D0B3F5E05F04D05A
:10106400294840F2323100F0EBF825498B6823F42B
:10107400E052E36813438B60236813F0080F1AD01F
:10108400236983B1B3F5805F0DD0B3F5A05F0AD0B7
:10109400B3F5C05F07D0B3F5E05F04D01A4840F25F
:1010A400393100F0CDF8164A936823F4604321697E
:1010B40043EAC10393600F20FFF7AAF9002070BD33
:1010C400012070BD012070BD012070BD012070BDE4
:1010D400032070BD032070BD032070BD032070BDCC
:1010E400012070BD012070BD012070BD032070BDC2
:1010F400032070BD032070BD032070BD012070BDAE
:1011040000380240003C0240D41F0008214B9B6879
:1011140003F00C03042B3AD0082B01D01E4870476F
:101124001C4B586800F03F005B6813F4800F0FD02D
:101134001A4BB3FBF0F3174A506847F6C0721040DD
:1011440092FAA2F2B2FA82F2D04000FB03F30EE06C
:10115400114BB3FBF0F30F4A506847F6C0721040CE
:1011640092FAA2F2B2FA82F2D04000FB03F3094AE7
:10117400506800F440304FF4403292FAA2F2B2FACE
:1011840082F2D04001304000B3FBF0F070470348D6
:10119400704700BF003802400024F40040787D010D
:1011A40008B5FFF7B3FF084B9B6803F0F003F02288
:1011B40092FAA2F2B2FA82F2D340044AD35CD84043
:1011C400034B186008BD00BF00380240C41F00086C
:1011D4000C000020FEE700BF08B5034800F056F8F5
:1011E4000120FFF7F7FF00BF0420000808B50D4BEE
:1011F4001B6813B90C4A0B4B1A600A4B1A68C31CC0
:1012040023F00303134409498B4206D900F06CFA16
:101214000C2303604FF0FF3008BD02490B601046F9
:1012240008BD00BF800000201C01002000FC01203C
:1012340001230360014B0B60704700BF04000020D2
:1012440008B503460A460348194600F005F8FFF7B7
:10125400C3FF00BF582000080FB400B583B004AB2F
:1012640053F8042B01930848802100F075FA011EFD
:1012740003DD054800F04CF80146084603B05DF86C
:1012840004EB04B0704700BF8800002010B504468A
:1012940000F030FA0146204600F03AF802480121F5
:1012A40000F036F810BD00BF482100082DE9F043D6
:1012B40085B004460F46435C13BB042528462146EB
:1012C400ABBE04461FE03546102E28BF1025002370
:1012D40006E014F8011B04AA1A4402F8101C013396
:1012E400AB42F6D304AA1344002203F8102CE946B7
:1012F4004FF0040840464946ABBE8046761B00E0EA
:101304000E46002EDFD1384605B0BDE8F08300BF9D
:1013140008B5FFF7CBFF08BD08B500F091F8024B04
:10132400024A9A6008BD00BF00ED00E0000000081A
:10133400F8B504460D4617461E462648FFF78CFFAF
:1013440025482168FFF788FF24486168FFF784FF78
:101354002348A168FFF780FF2248E168FFF77CFF7C
:1013640021482169FFF778FF20486169FFF774FF7E
:101374001F48A169FFF770FF1E48E169FFF76CFF82
:101384001D48FFF769FF1D482946FFF765FF1C4C00
:10139400E16A1C48FFF760FF216B1B48FFF75CFF05
:1013A400E16B1A48FFF758FF15F0800F03D0184877
:1013B4003946FFF751FF15F4004F03D01548314665
:1013C400FFF74AFF1448FFF747FF14480699FFF751
:1013D40043FFF8BDB0200008C0200008D02000085A
:1013E400E0200008F0200008002100081021000877
:1013F4002021000830210008402100084C21000869
:1014040000ED00E05C2100086C2100087C2100084C
:101414008C2100089C210008AC210008B42100089C
:1014240083691A888A4207D10268033A012A05D8D7
:101434000233836101207047002070470020704709
:101444000C4B1A6842F001021A60002199601A6874
:1014540022F0847222F480321A60074A5A601A68B1
:1014640022F480221A60D9604FF00062034B9A6024
:10147400704700BF003802401030002400ED00E047
:10148400224B9B6803F00C03042B07D0082B09D0D4
:10149400002B2DD11E4A1F4B1A602CE01E4A1D4BF7
:1014A4001A6028E0194B5A685B6803F03F0312F492
:1014B400800F09D0184AB2FBF3F2144B5B68C3F3F4
:1014C400881303FB02F208E0114AB2FBF3F30F4A5C
:1014D4005168C1F3881101FB03F20C4B5B68C3F341
:1014E400014301335B00B2FBF3F30A4A136002E0E9
:1014F400074A084B1A60054B9B68C3F30313074A5A
:10150400D15C044A1368CB40136070470038024032
:101514000024F4000C00002040787D01F82100082C
:1015240030B587B00C4A136B43F0080313634FF4D0
:101534008054019401230293022204920393074DE1
:10154400284601A9FFF732F8284621460022FFF772
:10155400BDF907B030BD00BF00380240000C0240A6
:101564000A4B1B680A4AA2FB03239B09013BB3F104
:10157400807F09D2074A5360F021074B83F8231078
:101584000023936007231360704700BF0C00002002
:10159400D34D621010E000E000ED00E0034B186052
:1015A400024B1B68002BFBD1704700BF14010020C5
:1015B400034B1B681BB1024A1368013B136070475D
:1015C4001401002008B5FEF751FFFFF7F1FF08BD35
:1015D40010B594B0214B1A6C42F080521A641B6C03
:1015E40003F080530193019B1D4B1A6842F480421F
:1015F4001A601B6803F480430293029B012308933F
:1016040009934FF480030F93192310934FF4A87395
:10161400119302241294072313930E9408A8FFF73E
:101624006FF90F2303930494002305934FF4A053FD
:1016340006934FF48053079303A80521FFF7B2FBE9
:10164400FFF7AEFD074BA3FB00308009FEF77CFFDC
:101654000420FEF78FFF14B010BD00BF0038024015
:1016640000700040D34D621008B5FEF7E5FEFFF7A9
:10167400AFFFFFF705FF08BD10B51548FFF706FEDD
:101684001448154B1968FFF7E7FDFFF769FFFFF7EB
:1016940047FF002411484FF480510122FFF716F947
:1016A40014B94FF47A7001E040F2EE20FFF776FFB0
:1016B4000A484FF480510022FFF708F9FA20FFF797
:1016C4006DFF013406482146FFF7C6FDE2E700BF7F
:1016D400082200081C2200080C000020000C024014
:1016E40034220008704700BF014B1868704700BFE0
:1016F40070000020034613F8012B002AFBD1181AAE
:101704000138704730B5141E9BB0054604DA8B23AC
:1017140003604FF0FF301CE04FF40272ADF80C2070
:1017240014BF04F1FF322246029205924FF6FF7273
:1017340000910491ADF80E2069461A461E9B00F0F4
:1017440075F8431CBCBF8B232B6014B1009B002293
:101754001A701BB030BD000073B50093054B0646EC
:101764000D461446186831462A462346FFF7CAFF39
:1017740002B070BD700000202DE9F0478E68B342BE
:1017840082460C469046994640D38A8912F4906F5B
:101794003AD0256809696F1A6569022305EB450586
:1017A40095FBF3F57B1C4B449D4238BF1D46530506
:1017B4000FD5294600F03CFB064698B121693A460C
:1017C40000F0CBFAA38923F4906343F08003A38150
:1017D40013E02A4600F082FB064670B950462169A0
:1017E40000F0E2FA0C23CAF80030A38943F0400366
:1017F400A3814FF0FF30BDE8F087266165613E4468
:10180400ED1B2660A5604E46B14500D24E463246D9
:101814002068414600F0ACFAA3689B1BA3602368D0
:101824001E4426600020BDE8F08700002DE9F04347
:101834009DB0064603938B891C060D4690460CD535
:101844000B6953B9402100F0F3FA2860286110B9FC
:101854000C233360CCE040236B61002309932023E5
:101864008DF8293030238DF82A3043461C4613F86E
:10187400012B1AB9B4EB08090FD002E0252AF5D1DF
:10188400F8E73046294642464B46FFF775FF0130DC
:1018940000F0A980099B4B4409932378002B00F0A6
:1018A400A28000234FF0FF3204930793059206931E
:1018B4008DF853301A9304F101084446DFF8489137
:1018C40021784846052200F039FA08F10108049B02
:1018D40030B1C9EB00000122824013430493ECE7CA
:1018E400D80644BF20228DF85320190744BF2B2269
:1018F4008DF8532022782A2A02D0079923460EE035
:10190400039A111D12680391002ABBBF524243F08F
:10191400020307920792B8BF049301340AE01C46FD
:1019240001332278303A092A03D80A2000FB012126
:10193400F5E7079123782E2B1AD163782A2B0AD145
:10194400039B1A1D1B680392002BB8BF4FF0FF3393
:10195400023405930CE0611C00220C46013123780B
:10196400303B092B03D80A2000FB0232F5E705922D
:10197400DFF8988021784046032200F0DFF938B17F
:10198400049AC8EB000040238340134304930134BA
:1019940021781A488DF82810062204F1010800F075
:1019A400CDF988B1164B33B9039B073323F00703F2
:1019B4000833039313E003AB0093304604A92A468B
:1019C400104BAFF3008007E003AB0093304604A94B
:1019D4002A460C4B00F092F8421C074603D0099BA0
:1019E4003B44099341E7AB895B0601D4099801E0C4
:1019F4004FF0FF301DB0BDE8F08300BF4C2200085B
:101A0400000000007D170008422200084822000858
:101A14002DE9F84391461F468A680B69DDF820805A
:101A24009342B8BF1346C9F8003091F843200646E4
:101A34000C4612B10133C9F800302368990642BF3D
:101A4400D9F800300233C9F80030256815F00605CE
:101A54001CD094F843302268003318BF0123920647
:101A64001FD5E1185A1C302081F84300224494F811
:101A7400451082F84310023313E03046394604F12E
:101A840019020123C047013007D00135E368D9F8B2
:101A940000209B1A9D42F0DBDBE74FF0FF30BDE8EE
:101AA400F8833046394604F14302C0470130F4D08C
:101AB4002268D9F80050E36802F00602042A08BF3D
:101AC4005D1B2269A3680CBF25EAE57500259342D6
:101AD400C4BF9B1AED184FF00009A9450ADA304635
:101AE400394604F11A020123C0470130D5D009F167
:101AF4000109F2E70020BDE8F88300002DE9FF4169
:101B04000C461746227E6E2A984606460A9B01F129
:101B1400430100F0AF8012D8632A23D00AD8002AE8
:101B240000F0BC80582A40F0CB8084F84520DFF8D0
:101B340004E257E0642A1ED0692A1CD0C0E0732A4C
:101B440000F0B08009D86F2A2ED0702A40F0B880F7
:101B5400226842F0200222603FE0752A24D0782ACD
:101B64003BD0ADE01A68111D1960136884F8423047
:101B740004F14205A8E020681A6810F0800F02D032
:101B8400101D186008E010F0400F02F10400186006
:101B940002D0B2F9003000E01368002B3EDA2D22A7
:101BA4005B4284F8432039E020681A6810F0800F03
:101BB40002D0101D186007E010F0400F02F104007D
:101BC400186001D0138800E01368227EDFF864E116
:101BD4006F2A0CBF08220A221CE07822DFF858E1A1
:101BE40084F845202268186812F0800F00F104057B
:101BF4001D6003D1550601D5038800E00368D007B2
:101C040044BF42F0200222601BB9226822F0200265
:101C140022601022002084F8430002E0DFF814E17F
:101C24000A226568A560002DA2BF206820F0040088
:101C3400206003B965B10D46B3FBF2F002FB10332B
:101C44001EF8033005F8013D03460028F4D100E0F6
:101C54000D46082A0BD12368DA0708D52369626880
:101C64009A42DEBF302305F8013C05F1FF35491BDC
:101C740021612EE025681A68606915F0800F03D091
:101C8400151D1D60136808E015F0400F02F10405EE
:101C94001D60136801D0188000E0186000232361E0
:101CA4000D4616E01A68111D196015686268284609
:101CB400002100F043F808B1401B6060636804E051
:101CC40004F1420584F8422001232361002384F8AF
:101CD4004330CDF800803046214603AA3B46FFF747
:101CE40097FE013002D14FF0FF301FE030463946F5
:101CF4002A462369C0470130F5D023689B0705D4E1
:101D0400E068039B9842B8BF18460FE00025E368DB
:101D1400039A9B1A9D42F3DA3046394604F11902BC
:101D24000123C0470130DED00135F0E704B0BDE83F
:101D3400F08100BF532200086422000810B5C9B224
:101D440002449042034606D01C788C4200F1010004
:101D5400F7D1184610BD002010BD10B5431E0A442B
:101D6400914204D011F8014B03F8014FF8E710BD7C
:101D7400814210B501EB020301D3421E0BE09842ED
:101D8400FBD28118D21AD34204D013F8014D01F8C2
:101D9400014DF8E710BD994204D011F8014B02F847
:101DA400014FF8E710BD000030B500293DD051F8CF
:101DB400042C0B1F1D49002AB8BF9B180A680C4647
:101DC40012B95A600B6030BD93420DD2196858188D
:101DD400904201BF5A5852181A6042685A602360F0
:101DE40030BD994203D80A4651680029F9D11468D4
:101DF40015199D420AD11B682344D01888421360E8
:101E040013D10868034413604B680DE002D90C2316
:101E1400036030BD1C681819884204BF086849680B
:101E2400596004BF00191860536030BD0C010020D4
:101E340070B5CC1C24F0030408340C2C38BF0C24DB
:101E4400002C064603DA0C233360002070BD8C425C
:101E5400F9D3204A136810461946A1B10A68121B27
:101E64000ED40B2A03D90A608B188C501FE08B42C6
:101E74000DBF5A684A685A60026018BF0B4616E0E4
:101E84000B464968E9E7144D2B681BB9304600F04E
:101E94004BF828603046214600F046F8421C0346C1
:101EA400D1D0C51C25F0030585420AD11C6003F17D
:101EB4000B001A1D20F00700821A0AD051429950D3
:101EC40070BD3046E91A00F02FF80130BBD02B4624
:101ED400ECE770BD0C01002008010020F8B50746AE
:101EE40015460E4621B91146BDE8F840FFF7A0BFDC
:101EF4001AB9FFF759FF2846F8BD00F025F8A842A3
:101F04000ED238462946FFF793FF044650B13146B6
:101F14002A46FFF722FF38463146FFF745FF01E026
:101F24003046F8BD2046F8BD38B5064C00230546BA
:101F340008462360FFF75AF9431C02D1236803B112
:101F44002B6038BD1001002051F8040C0028BEBFDE
:101F5400091851F8043CC018043870472E2E2F730A
:101F6400797374656D2F7372632F73746D33326676
:101F7400342D68616C2F73746D3332663478785FF6
:101F840068616C5F636F727465782E630000000093
:101F94002E2E2F73797374656D2F7372632F737480
:101FA4006D333266342D68616C2F73746D33326611
:101FB4003478785F68616C5F6770696F2E630000C6
:101FC40000000000010203040102030406070809DB
:101FD4002E2E2F73797374656D2F7372632F737440
:101FE4006D333266342D68616C2F73746D333266D1
:101FF4003478785F68616C5F7263632E63000000FD
:1020040061626F727428292C2065786974696E671F
:102014002E2E2E002C2066756E6374696F6E3A2026
:1020240000000000617373657274696F6E2022256D
:102034007322206661696C65643A2066696C652068
:10204400222573222C206C696E6520256425732556
:10205400730A00006173736572745F706172616DFD
:102064002829206661696C65643A2066696C65207C
:10207400222573222C206C696E652025640A0000D9
:102084006D61696E28617267633D25642C206172FD
:1020940067763D5B000000002C200000222573229F
:1020A400000000005D293B0A0000000053746163D6
:1020B4006B206672616D653A0A0000002052302080
:1020C4003D2020253038580A0000000020523120DD
:1020D4003D2020253038580A0000000020523220CC
:1020E4003D2020253038580A0000000020523320BB
:1020F4003D2020253038580A00000000205231329B
:10210400203D20253038580A00000000204C522081
:102114003D2020253038580A00000000205043207C
:102124003D2020253038580A00000000205053522A
:10213400203D20253038580A000000004653522F15
:102144004641523A0A0000002043465352203D20A3
:1021540020253038580A00002048465352203D209C
:1021640020253038580A00002044465352203D2090
:1021740020253038580A00002041465352203D2083
:1021840020253038580A0000204D4D464152203D4C
:1021940020253038580A00002042464152203D2074
:1021A40020253038580A00004D6973630A00000086
:1021B400204C522F4558435F52455455524E3D20B2
:1021C400253038580A0000005B4861726446617526
:1021D4006C745D0A000000005B4275734661756CA7
:1021E400745D0A005B55736167654661756C745D67
:1021F4000A000000000000000000000001020304C7
:102204000607080948656C6C6F2041524D20576FD2
:10221400726C64210000000053797374656D20634F
:102224006C6F636B3A20257520487A0A0000000021
:102234005365636F6E642025750A00004300232DE7
:10224400302B2000686C4C006566674546470030BB
:102254003132333435363738394142434445460008
:102264003031323334353637383961626364656608
:012274000069
:102278007856341284000020000000000024F40086
:102288000000000000000000000000000000000046
:102298000000000000000000000000000000000036
:1022A80040220008000000000000000000000000BC
:1022B8000000000000000000000000000000000016
:1022C8000000000000000000000000000000000006
:1022D80000000000000000000000000000000000F6
:0822E80010000020325476982A
:040000050800018965
:00000001FF
