:020000040800F2
:10000000000002205D02000861020008630200088F
:10001000A1020008A3020008B902000800000000C5
:10002000000000000000000000000000CF020008F7
:10003000D102000800000000D3020008AD0D000846
:10004000E9020008E9020008E9020008E9020008E4
:10005000E9020008E9020008E9020008E9020008D4
:10006000E9020008E9020008E9020008E9020008C4
:10007000E9020008E9020008E9020008E9020008B4
:10008000E9020008E9020008E9020008E9020008A4
:10009000E9020008E9020008E9020008E902000894
:1000A000E9020008E9020008E9020008E902000884
:1000B000E9020008E9020008E9020008E902000874
:1000C000E9020008E9020008E9020008E902000864
:1000D000E9020008E9020008E9020008E902000854
:1000E000E9020008E9020008E9020008E902000844
:1000F000E9020008E9020008E9020008E902000834
:10010000E9020008E9020008E9020008E902000823
:10011000E9020008E9020008E9020008E902000813
:10012000E9020008E9020008E9020008E902000803
:10013000E90200080000000000000000E9020008D9
:10014000E9020008E9020008E9020008E9020008E3
:10015000E9020008E9020008E9020008E9020008D3
:10016000E9020008E9020008E9020008E9020008C3
:10017000E9020008E9020008000000000000000099
:10018000E9020008E902000807B500F039FD294B33
:10019000294A93420BD293E806000C3353F8040C1F
:1001A0009042F5D951F8044B42F8044BF8E7234B41
:1001B000234A934209D253F8082B53F8041C8A426D
:1001C000F6D2002042F8040BF9E700F03FFE684643
:1001D00001A900F00DFD1B4C1B4BE41AA4100025D7
:1001E0001E46A54204DA56F8253098470135F8E74F
:1001F000164B174CE41AA41000251E46A54204DA3B
:1002000056F8253098470135F8E79DE8030000F0DF
:1002100027FE104C104BE41A0646A4101D46002C75
:1002200004DD013C55F824309847F8E7304600F0EB
:10023000DBFC00BFEC020008040300080403000814
:100240001403000814030008140300081403000832
:100250001403000814030008140300081E48004794
:10026000FEE71EF0040F0CBFEFF30880EFF30980E8
:1002700071461A4A104710B5084C236B9B070BD5E3
:10028000E36A002B08DA4BF6AB6100F0D7FC18B13B
:100290004FF00043E36210BDFEE700BF00ED00E059
:1002A000FEE71EF0040F0CBFEFF30880EFF30980A8
:1002B00071460B4A1047FEE71EF0040F0CBFEFF328
:1002C0000880EFF309807146064A1047FEE7FEE713
:1002D000FEE7FEE77047000089010008770200088A
:0A02E000B7020008CD020008FEE797
:1002EC00C80E0008000000200C000020C80E0008FA
:1002FC0000000010000000100C000020180000206E
:08030C000000001000000010C9
:1003140010B5044600F04CFC4FF47A73B0FBF3F0D4
:1003240000F072F84FF0FF302146002200F03CF854
:10033400002010BD08B50B4B1A6842F400721A6015
:100344001A6842F480621A601A6842F480721A6071
:10035400032000F017F80F20FFF7DAFF00F0A0FDEC
:10036400002008BD003C0240024A136801331360B8
:10037400704700BF0C000020014B1868704700BF95
:100384000C000020074AD36823F4E0631B041B0C11
:1003940043F0BF6343F4003300F0070043EA002353
:1003A400D360704700ED00E0154BDB68C3F3022314
:1003B40070B5C3F107051C1D042D28BF0425062CA8
:1003C4008CBF033B0023012404FA03F6AC40013C38
:1003D400013E214099403240002842EA01024FEA9E
:1003E4000212AFBF00F1604000F00F00054BD2B223
:1003F400A5BF00F56140D2B21A5480F8002370BD45
:1004040000ED00E014ED00E00138B0F1807F3FBF63
:10041400064B074A5860F0213FBF82F823100020A2
:100424000722986034BF1A600120704710E000E092
:1004340000ED00E0044B1A6804280CBF42F00402EB
:1004440022F004021A60704710E000E02DE9F34145
:100454000F6800220123934003EA07059D4240F000
:10046400CB804C6824F0100CBCF1020F14D14FEA7D
:10047400D20E00EB8E0E02F00706DEF82030B60036
:100484004FF00F0808FA06F823EA08080B69B3408E
:1004940048EA0303CEF820304FEA420E03230668ED
:1004A40003FA0EF3DB4303EA060804F0030606FA34
:1004B4000EF60CF1FF3C48EA0606BCF1010F06609B
:1004C40011D8866803EA060CCE6806FA0EF64CEAE2
:1004D40006068660466826EA050CC4F300169640B4
:1004E4004CEA06064660C66803EA060C8B6803FA03
:1004F4000EF64CEA0603C360E3007DD5424B5E6C06
:1005040046F480465E645B6C22F0030606F1804686
:1005140003F4804306F59C36019302F0030C019B1F
:10052400D6F808E04FEA8C0C0F2303FA0CF32EEAFA
:10053400030E364B984222D003F58063984220D0B4
:1005440003F5806398421ED003F5806398421CD063
:1005540003F5806398421AD003F58063984218D05B
:1005640003F58063984216D003F58063984214D053
:1005740003F5806398420CBF082309230EE000238F
:100584000CE001230AE0022308E0032306E004232D
:1005940004E0052302E0062300E0072303FA0CF33A
:1005A40043EA0E03DFF868E0B360DEF80030EE43A0
:1005B40014F4803F14BF2B433340CEF80030DEF8F0
:1005C4000430DFF84CE014F4003F14BF2B433340F5
:1005D400CEF80430DEF8083014F4801F14BF2B4327
:1005E4003340CEF80830DEF80C30A40254BF06EADB
:1005F40003051D43064BDD600132102A7FF42AAF48
:1006040002B0BDE8F08100BF0038024000000240A3
:10061400003C014002B90904816170470368F7B5E1
:100624000446D80703D4236899074CD499E08A4B2D
:100634009A6802F00C02042A07D09A6802F00C02AD
:10064400082A0BD15B685A0208D5834B1B689B03AD
:10065400E9D56368002BE6D1012061E17F4D0023D9
:100664002B70FFF789FE06467B4B1B689F0308D55A
:10067400FFF782FE41F28833801B9842F4D90320AD
:100684004EE123792B70636873B1FFF775FE05465D
:10069400714B1B689E03C6D4FFF76EFE41F288338C
:1006A400401B9842F4D9EAE7FFF766FE05466A4B19
:1006B4001B689803B7D5FFF75FFE41F28833401BF0
:1006C4009842F4D9DBE7644B9A6812F00C0F07D018
:1006D4009A6802F00C02082A16D15B68590213D4F6
:1006E4005D4B1A68920702D5E268012AB4D11968F1
:1006F400F82090FAA0F02269B0FA80F021F0F80115
:1007040082400A431A602CE0E268554BDAB10122B8
:100714001A60FFF731FE05464F4803689F0705D46A
:10072400FFF72AFE401B6428F6D9A8E70268F821DF
:1007340091FAA1F12369B1FA81F122F0F8028B4018
:10074400134303600DE01A60FFF716FE0546424BA3
:100754001B689E0705D5FFF70FFE401B6428F6D9DA
:100764008DE723681D0703D4236858074BD51FE082
:1007740062693C4B72B101221A60FFF7FDFD054628
:10078400354B5B6F9907EFD4FFF7F6FD401B6428E8
:10079400F6D974E71A60FFF7EFFD05462E4B5B6F41
:1007A4009A07E1D5FFF7E8FD401B6428F6D966E710
:1007B400294B1A6C42F080521A641B6C2A4A03F0CB
:1007C40080530193019B136843F480731360FFF714
:1007D400D3FD0546244B1B68DB0517D5234D0023A9
:1007E4002B70FFF7C9FD06461B4B1B6F9F0713D4E5
:1007F400237A2B70A368FBB1FFF7BEFD0546164BA9
:100804001B6F9E0710D5A26992BB6EE0FFF7B4FD83
:10081400401B6428DED932E7FFF7AEFD41F288338E
:10082400801B9842E0D92AE7FFF7A6FD41F28833FE
:10083400401B9842E3D922E7FFF79EFD0546064B8D
:100844001B6F9807DFD5FFF797FD41F28833401BF4
:100854009842F4D913E700BF00380240023802403E
:1008640000004742800E474200700040703802404A
:100874002C4B9B6803F00C03082B3FF4EDAE2A4D80
:100884000023022A2B603ED1FFF776FD0646254859
:10089400036899012BD447F6C07797FAA7F74FF46A
:1008A4004036B7FA87F796FAA6F64FF07061B6FAB3
:1008B40086F691FAA1F1E369226AB1FA81F11A4349
:1008C400636ABB401A43A36A5B08013BB34013430A
:1008D400E26A8A401343436001232B60FFF74CFD17
:1008E4000446104B1B689A0107D5002018E0FFF757
:1008F40043FD801B6428CAD9C1E6FFF73DFD001BF8
:100904006428EED9BBE6FFF737FD0446054B1B68A8
:100914009B01EAD5FFF730FD001B6428F6D9AEE64B
:1009240003B0F0BD00380240600047427F4B1A68B4
:1009340002F00F02914270B504460D4677D9CAB24F
:100944001A701B6803F00F038B4201D0012070BDA5
:1009540001688B0741BF7648836823F0F002A368DF
:1009640044BF13438360CE070BD421684D0740F185
:10097400CC806F48836823F4E052E36813438360B8
:10098400C3E063686A4A012B03D1126812F4003F82
:1009940008E0991E0129126802D812F0007F01E0D4
:1009A40012F0020FD2D062498A6822F00302134384
:1009B4008B60FFF7E1FC6368012B05460ED15C4BAD
:1009C4009B6803F00C03042BCFD0FFF7D5FC41F256
:1009D4008833401B9842F2D9032070BD022B0DD1FD
:1009E400534B9B6803F00C03082BBED0FFF7C4FCE9
:1009F40041F28833401B9842F2D9EDE7032B10D122
:100A04004B4B9B68FFF7B8FC41F28833401B98427C
:100A1400F6D9E1E7FFF7B0FC41F28833401B984276
:100A2400DAD8434B9B6813F00C0FF3D19DE70168B0
:100A3400880741BF3E48836823F0F002A36844BF9F
:100A440013438360CA0709D4384BEAB21A701B688F
:100A540003F00F03AB427FF479AF86E76368344A4F
:100A6400012B03D1126812F4003F08E0991E0129FA
:100A7400126802D812F0007F01E012F0020F3FF476
:100A840065AF2B498A6822F0030213438B60FFF79A
:100A940073FC6368012B06460DD1254B9B6803F05C
:100AA4000C03042BD0D0FFF767FC41F28833801B82
:100AB4009842F2D990E7022B0DD11D4B9B6803F0AD
:100AC4000C03082BC0D0FFF757FC41F28833801B7E
:100AD4009842F2D980E7032B11D1154B9B68FFF79D
:100AE4004BFC41F28833801B9842F6D974E7FFF738
:100AF40043FC41F28833801B98423FF66DAF0C4BA8
:100B04009B6813F00C0FF2D19EE70B0741BF084A14
:100B14002169936823F4604344BF43EAC1039360AB
:100B24000F20FFF7F5FB002070BD00BF003C024022
:100B34000038024010B51C4CA36803F00C03042BCE
:100B440002D0082B02D02DE0002010BD636862683B
:100B540012F4800F47F6C07104D0636891FAA1F1D2
:100B640000230FE0626891FAA1F147F6C0701040CB
:100B7400B1FA81F1C84003F03F030C4AB2FBF3F22F
:100B840002FB00F3084A50684FF4403292FAA2F292
:100B940000F44030B2FA82F2D04001304000B3FB9E
:100BA400F0F010BD014810BD003802400024F400EC
:100BB40008B5FFF7BFFF084BF0229B6892FAA2F238
:100BC40003F0F003B2FA82F2D340044AD35CD84073
:100BD400034B186008BD00BF00380240A60E000891
:100BE4000800002008B500F015F800000123036098
:100BF400014B0B60704700BF0000002008B500F0F7
:100C040029F8024B024A9A6008BD00BF00ED00E0DB
:100C140000000008BFF34F8F0549064BCA6802F471
:100C2400E0621343CB60BFF34F8F00BFFDE700BF0B
:100C340000ED00E00400FA0583691A888A4207D1AE
:100C44000268033A012A03D8023383610120704702
:100C5400002070470C4B1A68002142F001021A6010
:100C640099601A6822F0847222F480321A60074A6A
:100C74005A601A6822F480221A60D960044B4FF03B
:100C840000629A60704700BF0038024010300024B0
:100C940000ED00E0194A1A49936803F00C03042B91
:100CA40003D0082B03D0174B1CE000231AE0506834
:100CB4005368400257BF50685368124A03F03F0319
:100CC40058BFB2FBF3F30D4A5268C2F3014258BF56
:100CD400C0F3881002F101024CBF002343435200C9
:100CE400B3FBF2F30B60054B074A9B68C3F3031392
:100CF400D25C0B68D3400B60704700BF00380240E1
:100D0400080000200024F400B60E000830B50D4A97
:100D14000D4D136B87B043F0080313634FF48054F5
:100D240001230222284601A9029304920393019409
:100D3400FFF78CFB284621460022FFF76BFC07B027
:100D440030BD00BF00380240000C02400A4B4FF493
:100D54007A721B68B3FBF2F3013BB3F1807F09D2D3
:100D6400064A5360064BF02183F823100023936056
:100D740007231360704700BF0800002010E000E064
:100D840000ED00E0024B18601A68002AFCD170479D
:100D940014000020034B1A6812B11A68013A1A6051
:100DA400704700BF1400002008B5FFF7DDFABDE866
:100DB4000840FFF7EFBF0000214B30B51A6C42F03A
:100DC40080521A641B6C95B003F080530193019B0D
:100DD4001C4B1A6842F480421A601B6803F4804377
:100DE4000293029B01230B9310230C9310934FF453
:100DF400A87302240025119308A8072313930894C9
:100E04000F9512940E94FFF709FC0F2303934FF4EC
:100E1400A0530521069303A84FF480530793049429
:100E24000595FFF783FDFFF7C3FE4FF47A73B0FB1C
:100E3400F3F0FFF7E9FA0420FFF7FCFA15B030BD30
:100E4400003802400070004008B5FFF773FAFFF75E
:100E5400B3FFBDE80840FFF71DBF000010B5FFF762
:100E640075FFFFF753FF00244FF4805101220B4814
:100E7400FFF7D0FB002C40F2EE2008BF4FF47A704D
:100E8400FFF780FF05484FF480510022FFF7C2FBB3
:100E9400FA20FFF777FF0134E6E700BF000C0240B9
:100EA4007047000000000102030401020304060766
:100EB4000809000000000000000001020304060706
:020EC40008091B
:0C0EC80010000020000000000024F400D6
:040000050800018965
:00000001FF
