:020000040800F2
:1000000000000220B9020008C1020008C502000871
:10001000390300083D0300088503000800000000C4
:10002000000000000000000000000000CD030008F8
:10003000D103000800000000D50300088143000838
:10004000053800080538000805380008053800089C
:10005000053800080538000805380008053800088C
:10006000053800080538000805380008053800087C
:10007000053800080538000805380008053800086C
:10008000053800080538000805380008053800085C
:10009000053800080538000805380008053800084C
:1000A000053800080538000805380008053800083C
:1000B000053800088D430008053800080538000899
:1000C000053800080538000805380008053800081C
:1000D000053800089D430008053800080538000869
:1000E00005380008053800080538000805380008FC
:1000F00005380008053800080538000805380008EC
:1001000005380008053800080538000805380008DB
:1001100005380008053800080538000805380008CB
:1001200005380008053800080538000805380008BB
:100130000538000800000000000000000538000835
:10014000053800080538000805380008053800089B
:10015000053800080538000805380008053800088B
:10016000053800080538000805380008053800087B
:1001700005380008053800080000000000000000F5
:10018000053800080538000800B583B003F0A2FA6E
:10019000384B394A1360394A136039490CE00A6810
:1001A0004B6801F10C04886803E01168196004339E
:1001B00004329842F9D82146324B9942EFD32E4B64
:1001C0001A68314B9A4204D12C4B1A682F4B9A4231
:1001D00000D0FEE7274B2E4A13602E4A13602E4BA9
:1001E0000AE0194651F8082B5B6802E00020106015
:1001F00004329A42FAD30B46284A9342F1D3244B55
:100200001B6813B9234B1B6803B1FEE703F06EFABA
:1002100001A8694603F006FA214C224B1C1BA410CE
:10022000002504E01E4B53F8253098470135AC42B9
:10023000F8DC1D4C1D4B1C1BA410002504E01A4BC0
:1002400053F8253098470135AC42F8DC0198009905
:1002500003F0E0FD0546164C164B1C1BA41004E0F1
:10026000013C134B53F824309847002CF8DC284607
:1002700003F0B4F9BABADECA0000002088000020FA
:10028000E8030008000400087856341232547698C7
:100290008C0000207C0300200004000810040008EB
:1002A00010040008100400081004000810040008DE
:1002B000100400081004000808B5FFF765FF00BF30
:1002C00000BEFEE71EF0040F0CBFEFF30880EFF353
:1002D00009807146414A10472DE9F04182B0044639
:1002E0008846134B5E6B9D6B9F6A1B6B13F0020F6E
:1002F0000DD00F4BDB6A002B09DA4BF6AB6103F034
:1003000071FA20B14FF00042094BDA620CE0094863
:1003100003F090F9CDF800802046394632462B464E
:1003200003F0E8F900BEFEE702B0BDE8F08100BFCF
:1003300000ED00E04850000800BEFEE71EF0040F8C
:100340000CBFEFF30880EFF309807146244A104791
:100350002DE9F04182B007468846084B5D6B9C6BE7
:100360009E6A074803F066F9CDF8008038463146AA
:100370002A46234603F0BEF900BEFEE700ED00E08A
:10038000585000081EF0040F0CBFEFF30880EFF385
:1003900009807146134A10472DE9F04182B00746A3
:1003A0008846084B5D6B9C6B9E6A074803F042F9D8
:1003B000CDF80080384631462A46234603F09AF9A4
:1003C00000BEFEE700ED00E06450000800BEFEE75E
:1003D00000BEFEE700BEFEE770470000D90200083D
:0803E000510300089903000815
:1003E800EC510008000000208C000020EC510008AF
:1003F80000000010000000108C0000208003002086
:080408000000001000000010CC
:1004100010B5044601F0A6F8064BA3FB0030800996
:1004200000F028FB4FF0FF302146002200F0CCFA0C
:10043000002010BDD34D621008B50B4B1A6842F472
:1004400000721A601A6842F480621A601A6842F4F4
:1004500080721A60032000F099FA0020FFF7D8FF9D
:1004600003F042FE002008BD003C0240024A13682F
:1004700001331360704700BF24010020014B18684E
:10048000704700BF2401002010B582B00190FFF733
:10049000F5FF0446FFF7F2FF001B019B9842F9D3DA
:1004A00002B010BD10B50446504B5A6822F44032D9
:1004B0005A60596842680A435A600268536823F4D4
:1004C0008073536002685368016943EA01235360F3
:1004D0000268536823F04073536002685168836870
:1004E0000B4353600268936823F4006393600268CF
:1004F0009168C3680B439360826A3D4B9A4214D063
:100500000268936823F07063936002689168836A5D
:100510000B4393600268936823F040539360026832
:100520009168C36A0B43936009E00268936823F003
:10053000706393600268936823F04053936022686D
:10054000936823F00203936022689368A16943EAE9
:1005500041039360236A03B3636A013B072B04D909
:10056000244840F2046103F0BDFD2268536843F45F
:10057000006353602268536823F460435360636AE6
:10058000013B4FF4604292FAA2F2B2FA82F2934037
:10059000226851680B43536004E02268536823F4D7
:1005A000006353602268D36A23F47003D362216826
:1005B000CA6AE369013B42EA0353CB62226893684B
:1005C00023F40073936022689368216B43EA41230C
:1005D00093602268936823F4806393602268936831
:1005E000616943EA8123936010BD00BF002301408D
:1005F0000100000F944D0008002800F0DE8010B5C7
:10060000044603686E4A93420CD002F5807293420E
:1006100008D002F58072934204D06A4840F20D116E
:1006200003F060FD63686BB1B3F5803F0AD0B3F5AA
:10063000003F07D0B3F5403F04D062484FF48771C4
:1006400003F050FDA3686BB1B3F1807F0AD0B3F122
:10065000007F07D0B3F1407F04D05A4840F20F1119
:1006600003F040FD2369012B04D956484FF48871EB
:1006700003F038FDA369012B04D9524840F211114F
:1006800003F030FDA36AA3B3B3F1807F31D0B3F19F
:10069000007F2ED0B3F1407F2BD0B3F1806F28D0F4
:1006A000B3F1A06F25D0B3F1C06F22D0B3F1E06FEA
:1006B0001FD0B3F1006F1CD0B3F1106F19D0B3F19C
:1006C000206F16D0B3F1306F13D0B3F1406F10D05C
:1006D000B3F1506F0DD0B3F1606F0AD0B3F1706F0A
:1006E00007D0394A934204D036484FF4897103F059
:1006F000F9FCE3683BB1B3F5006F04D0314840F238
:10070000131103F0EFFCE369013B0F2B04D92D48D3
:100710004FF48A7103F0E6FC236B012B04D92948BE
:1007200040F2151103F0DEFC6369022B04D9254861
:100730004FF48B7103F0D6FC236A012B04D92148B6
:1007400040F2171103F0CEFCA26A1F4B9A420FD061
:10075000E36A6BB1B3F1805F0AD0B3F1005F07D0F9
:10076000B3F1405F04D0174840F21B1103F0BAFC0C
:10077000236C2BB9636484F83C30204603F0C0FC42
:10078000236C13F0100F13D1236C23F4885323F040
:10079000020343F0020323642046FFF783FE002098
:1007A0006064236C23F0030343F00103236400E03F
:1007B0000120002384F83C3010BD0120704700BFA9
:1007C00000200140944D00080100000F30B583B0B7
:1007D00005460C46002301930B68122B04D9674889
:1007E00040F2FE4103F07EFC6368013B0F2B04D90D
:1007F000624840F2FF4103F075FCA368072B04D95F
:100800005E484FF4A06103F06DFC95F83C30012B7D
:1008100000F0B080012385F83C302368092B16D9FD
:100820002868C2689BB203EB43031E3B072101FA11
:1008300003F322EA0303C3602968C868A268238817
:1008400003EB43031E3B9A400243CA6013E028684F
:1008500002699BB203EB4303072101FA03F322EA87
:100860000303036129680869A368228802EB420236
:10087000934003430B616368062B16D82868426BCC
:1008800003EB8303053B1F2101FA03F322EA030371
:1008900043632968486B2288636803EB8303053B45
:1008A00002FA03F303434B632EE00C2B16D828689F
:1008B000026B03EB8303233B1F2101FA03F322EABC
:1008C000030303632968086B2288636803EB8303CF
:1008D000233B02FA03F303430B6315E02868C26A63
:1008E00003EB8303413B1F2101FA03F322EA0303D5
:1008F000C3622968C86A2288636803EB8303413BAB
:1009000002FA03F30343CB622A681D4B9A4207D1D4
:100910002368122B04D11B4A536843F480035360AD
:100920002A68174B9A4221D12368103B012B1DD80E
:10093000144A536843F4000353602368102B15D105
:10094000114B1B6802F1467202F52E3202F283321D
:10095000A2FB03239B0C03EB83035B00019302E0E8
:10096000019B013B0193019B002BF9D1002085F8ED
:100970003C0000E0022003B030BD00BF944D0008F1
:1009800000200140002301400C00002010B5044667
:10099000C31E042B03D90A48A42103F0A3FB04F0CF
:1009A0000700084AD36823F4E0631B041B0C43EAE6
:1009B000002040F0BF6040F40030D06010BD00BFA8
:1009C000C44D000800ED00E070B504460E46154623
:1009D0000F2A03D91A48BC2103F084FB0F2E03D938
:1009E0001748BD2103F07EFB164BDB68C3F30223DF
:1009F000C3F10702042A28BF0422191D062901D9C0
:100A0000D81E00E00020012303FA02F2013A32402E
:100A100002FA00F183405A1E2A400A43002C06DAEB
:100A200004F00F041201D2B2074B1A5570BD120127
:100A3000D2B204F1604404F5614484F8002370BD2F
:100A4000C44D000800ED00E014ED00E010B5041EF8
:100A500003DA0648D02103F045FB610904F01F04C6
:100A60000123A340024A42F8213010BDC44D0008C2
:100A700000E100E00138B0F1807F0AD2064B5860F7
:100A8000F021064A82F823100020986007221A609D
:100A900070470120704700BF10E000E000ED00E06B
:100AA00010B50446042805D020B1094840F2B3111E
:100AB00003F018FB042C05D1064A136843F0040325
:100AC000136010BD034A136823F00403136010BDC4
:100AD000C44D000810E000E0704700BF08B5FFF704
:100AE000FBFF08BD2DE9F04F83B080460F46A14BB8
:100AF000984223D003F5806398421FD003F58063AA
:100B000098421BD003F58063984217D003F58063A9
:100B1000984213D003F5806398420FD003F58063A9
:100B200098420BD003F58063984207D003F58063A9
:100B3000984203D09048C52103F0D4FA3B881BB9F2
:100B40008D48C62103F0CEFA7B68012B22D9112BE8
:100B500020D0022B1ED0122B1CD0884A934219D0D1
:100B600002F58012934215D002F58012934211D003
:100B7000A2F5F81293420DD002F58012934209D0EB
:100B800002F58012934205D0032B03D07A48C72187
:100B900003F0A8FABB68022B03D97748C82103F0F9
:100BA000A1FA002426E1A1460125A5403B6803EAFD
:100BB000050AAA4540F01D817B68022B01D0122B4B
:100BC00045D13B699BB3092B31D083B37BB373B35E
:100BD0006BB3012B2BD02AD0022B28D027D026D0C4
:100BE000032B24D0042B22D021D020D0052B1ED0C3
:100BF0001DD0092B1BD0062B19D0092B17D0072B82
:100C000015D014D013D0082B11D010D00FD0092B31
:100C10000DD00CD00A2B0AD009D00C2B07D006D04F
:100C200005D00F2B03D05448D92103F05BFAE60816
:100C3000083658F8261004F0070080000F23834080
:100C400021EA03023B698340134348F82630D8F871
:100C500000304FEA440B032606FA0BF6F64306EA89
:100C600003027B6803F0030303FA0BF31343C8F892
:100C700000307B685A1E012A03D9112B01D0122B98
:100C80001CD1FB68032B03D93B48EC2103F02AFA63
:100C9000D8F8083006EA0302FB6803FA0BF31343A3
:100CA000C8F80830D8F8043023EA05037D68C5F396
:100CB000001505FA09F51D43C8F80450D8F80C30A2
:100CC0003340BE6806FA0BF61E43C8F80C607B681A
:100CD00013F0805F00F08D8000230193284B5A6C45
:100CE00042F480425A645B6C03F480430193019B9D
:100CF000A308991C234A52F8211004F00300800035
:100D00000F22824021EA02011A4A90453CD002F5A6
:100D1000806290452BD002F58062904525D002F587
:100D2000806290451FD002F58062904519D002F58F
:100D30008062904513D002F5806290450DD002F597
:100D40008062904507D002F58062904501D108226B
:100D50001BE0092219E0072217E0062215E0052210
:100D600013E0042211E003220FE002220DE0012231
:100D70000BE000BF00000240F84D00080000111019
:100D80000038024000380140002282400A4302330A
:100D90001B4941F823201B4B1A686FEA0A0303EA38
:100DA0000201786810F4803F01D04AEA0201154A36
:100DB0001160526803EA0201786810F4003F01D024
:100DC0004AEA02010F4A5160926803EA0201786818
:100DD00010F4801F01D04AEA02010A4A9160D268E9
:100DE0001340796811F4001F01D04AEA0203054A52
:100DF000D36001340F2C7FF6D6AE03B0BDE8F08F80
:100E000000380140003C014070B5064615460C46CE
:100E100021B9094840F2B11103F064F9012D04D958
:100E200005484FF4D97103F05DF90DB1B46170BD9F
:100E30002404B46170BD00BFF84D000838B5054604
:100E40000C4621B904484FF4E47103F04BF96B6987
:100E50005C406C6138BD00BFF84D000830B583B010
:100E6000044603680F2B03D99C48F62103F03AF996
:100E7000236813F0010F45D06368012B05D9052BBA
:100E800003D09648FB2103F02DF9954B9B6803F0A6
:100E90000C03042B0AD0924B9B6803F00C03082B25
:100EA0000CD18F4B5B6813F4800F07D08C4B1B6801
:100EB00013F4003F26D0636823BBCBE12279894B32
:100EC0001A7063687BB1FFF7D9FA054605E0FFF7B2
:100ED000D5FA401B642800F2BF81814B1B6813F4D4
:100EE000003FF4D00EE0FFF7C9FA054605E0FFF732
:100EF000C5FA401B642800F2B181794B1B6813F4DA
:100F0000003FF4D1236813F0020F6AD0E368012B8D
:100F100004D9724840F22D1103F0E4F823691F2B25
:100F200004D96E484FF4977103F0DCF86C4B9B6862
:100F300013F00C0F0AD06A4B9B6803F00C03082BCC
:100F40001BD1674B5B6813F4800F16D1644B1B6891
:100F500013F0020F03D0E368012B40F08181604859
:100F6000036823F0F8012369F82292FAA2F2B2FA98
:100F700082F293400B43036033E0E368FBB101224C
:100F8000594B1A60FFF77AFA054605E0FFF776FA43
:100F9000401B022800F26681514B1B6813F0020FC0
:100FA000F4D04F48036823F0F8012369F82292FA3D
:100FB000A2F2B2FA82F293400B43036011E00022E6
:100FC000494B1A60FFF75AFA054605E0FFF756FA53
:100FD000401B022800F24881414B1B6813F0020FAE
:100FE000F4D1236813F0080F2ED06369012B04D9C4
:100FF0003A484FF4B77103F075F8636993B1012271
:101000003A4B1A60FFF73AFA054605E0FFF736FA61
:10101000401B022800F22A81314B5B6F13F0020F54
:10102000F4D011E00022314B1A60FFF727FA054691
:1010300005E0FFF723FA401B022800F21981284B34
:101040005B6F13F0020FF4D1236813F0040F60D02C
:10105000A368012B06D9052B04D020484FF4CC718E
:1010600003F040F8002301931D4B1A6C42F08052AC
:101070001A641B6C03F080530193019B1C4A136894
:1010800043F480731360FFF7F9F9054605E0FFF7B5
:10109000F5F9401B022800F2ED80154B1B6813F494
:1010A000807FF4D0227A134B1A70A3688BB1FFF7BC
:1010B000E5F9054607E0FFF7E1F9401B41F2883307
:1010C000984200F2D980064B1B6F13F0020FF2D04A
:1010D0001FE0FFF7D3F9054616E000BF384E0008C1
:1010E000003802400238024000004742800E47426A
:1010F0000070004070380240FFF7C0F9401B41F219
:101100008833984200F2BA80634B1B6F13F0020FD2
:10111000F2D1A369022B04D9604840F2CD1102F04C
:10112000E1FFA369002B00F0AB805B4A926802F0FC
:101130000C02082A00F0A680022B78D1E3693BB1AB
:10114000B3F5800F04D055484FF4EB7102F0CAFF9D
:10115000236A3F2B04D9514840F2D71102F0C2FF55
:10116000636A323BB3F5BF7F04D94C484FF4EC714E
:1011700002F0B8FFA36A022B0AD0042B08D0062B7A
:1011800006D0082B04D0454840F2D91102F0AAFF3E
:10119000E36A043B0B2B04D940484FF4ED7102F095
:1011A000A1FF00223E4B1A60FFF768F9054604E0F4
:1011B000FFF764F9401B022866D8374B1B6813F011
:1011C000007FF5D1E269236A1A43636A47F6C0716A
:1011D00091FAA1F1B1FA81F18B401A43A36A5B083D
:1011E000013B4FF4403191FAA1F1B1FA81F18B400A
:1011F0001343E26A4FF0706191FAA1F1B1FA81F103
:101200008A401343244A53600122254B1A60FFF79A
:1012100035F9044604E0FFF731F9001B022835D800
:101220001D4B1B6813F0007FF5D0002031E0002239
:101230001B4B1A60FFF722F9044604E0FFF71EF982
:10124000001B022824D8144B1B6813F0007FF5D133
:1012500000201EE001201CE003201AE0032018E01B
:10126000012016E0032014E0032012E0032010E028
:1012700003200EE003200CE003200AE0032008E036
:10128000002006E0012004E0032002E0032000E04B
:10129000032003B030BD00BF00380240384E0008C4
:1012A0006000474270B504460D460368013B0E2BB3
:1012B00004D984484FF40E7102F014FF072D04D9AD
:1012C000804840F2392102F00DFF7F4B1B6803F08C
:1012D0000F03AB4208D2EBB27B4A1370136803F0E2
:1012E0000F03AB4240F0DB80236813F0020F1DD0E8
:1012F000A368A3B1802B12D0902B10D0A02B0ED0BE
:10130000B02B0CD0C02B0AD0D02B08D0E02B06D0AD
:10131000F02B04D06B484FF4147102F0E3FE6B49DC
:101320008B6823F0F002A36813438B60236813F0EB
:10133000010F64D06368032B04D9624840F257213F
:1013400002F0D0FE6268012A05D1604B1B6813F4DD
:10135000003F0FD1A5E0931E012B05D85B4B1B6806
:1013600013F0007F06D19EE0584B1B6813F0020F6C
:1013700000F09B8055498B6823F0030313438B6077
:10138000FFF77CF806466368012B0FD107E0FFF7F3
:1013900075F8801B41F28833984200F288804B4BED
:1013A0009B6803F00C03042BF1D128E0022B0ED133
:1013B00006E0FFF763F8801B41F28833984278D843
:1013C000424B9B6803F00C03082BF2D117E0032B70
:1013D00010D13E4B9B68FFF751F8801B41F28833D8
:1013E0009842F6D967E0FFF749F8801B41F288334D
:1013F000984262D8354B9B6813F00C0FF3D1324BF7
:101400001B6803F00F03AB4207D9EAB22E4B1A70E8
:101410001B6803F00F03AB4251D1236813F0040F94
:1014200019D0E36883B1B3F5805F0DD0B3F5A05F49
:101430000AD0B3F5C05F07D0B3F5E05F04D0214810
:1014400040F2B52102F04EFE20498B6823F4E052B1
:10145000E36813438B60236813F0080F1AD02369E5
:1014600083B1B3F5805F0DD0B3F5A05F0AD0B3F5BB
:10147000C05F07D0B3F5E05F04D012484FF42F717E
:1014800002F030FE114A936823F46043216943EA75
:10149000C10393600020FEF7BBFF002070BD012058
:1014A00070BD012070BD012070BD012070BD032002
:1014B00070BD032070BD032070BD032070BD0120EE
:1014C00070BD00BF384E0008003C024000380240AA
:1014D000214B9B6803F00C03042B3AD0082B01D05E
:1014E0001E4870471C4B586800F03F005B6813F4BF
:1014F000800F0FD01A4BB3FBF0F3174A506847F632
:10150000C072104092FAA2F2B2FA82F2D04000FB0E
:1015100003F30EE0114BB3FBF0F30F4A506847F6AC
:10152000C072104092FAA2F2B2FA82F2D04000FBEE
:1015300003F3094A506800F440304FF4403292FA05
:10154000A2F2B2FA82F2D04001304000B3FBF0F0D8
:1015500070470348704700BF003802400024F40081
:1015600040787D0108B5FFF7B3FF084B9B6803F097
:10157000F003F02292FAA2F2B2FA82F2D340044AC5
:10158000D35CD840034B186008BD00BF0038024050
:10159000284E00080C00002008B5FFF7E3FF074BBA
:1015A0009B6803F4E0534FF4E05292FAA2F2B2FACD
:1015B00082F2D340024AD35CD84008BD00380240D2
:1015C000284E000808B5FFF7CDFF074B9B6803F4D2
:1015D00060434FF4604292FAA2F2B2FA82F2D34030
:1015E000024AD35CD84008BD00380240284E0008AB
:1015F000002800F0D58010B504460368694A93427C
:101600000CD0A2F57842934208D002F58062934252
:1016100004D065484FF4867102F064FD63683BB105
:10162000B3F5827F04D0604840F20D1102F05AFDFC
:10163000A36853B1B3F5806F07D0B3F5004F04D062
:1016400059484FF4877102F04DFDE368B3F5006F20
:1016500005D023B1544840F20F1102F043FDA369B5
:10166000B3F5007F08D03BB1B3F5802F04D04E48CE
:101670004FF4887102F036FDE36993B1082B10D066
:10168000102B0ED0182B0CD0202B0AD0282B08D0D2
:10169000302B06D0382B04D0434840F2111102F011
:1016A00021FD236A33B1802B04D03F484FF4897168
:1016B00002F018FD636A33B1102B04D03A4840F2AF
:1016C000131102F00FFD636A83B9236933B1022B52
:1016D00004D035484FF48B7102F004FD6369012B8F
:1016E00004D9314840F2171102F0FCFCA36A3BB167
:1016F000B3F5005F04D02C484FF48D7102F0F2FC7A
:10170000A36AB3F5005F0AD1E36A013B4FF6FE72AC
:10171000934204D9244840F21D1102F0E3FC94F8EE
:10172000513013F0FF0F05D1002384F850302046CC
:1017300002F01CFD022384F851302268136823F064
:101740004003136021686268A3681A43E3681A4380
:1017500023691A4363691A43A36903F400731343AB
:10176000E2691343226A1343A26A1A430A6021689A
:10177000638B03F00402636A13434B60A36AB3F5FF
:10178000005F02D12368E26A1A612268D36923F4F8
:101790000063D36100206065012384F8513010BDDF
:1017A0000120704700300140684E000830B4036AE1
:1017B00023F001030362036A4468826922F0730222
:1017C0000D682A4323F002038D682B430F4DA84276
:1017D00005D005F58065A84203D1012502E0012569
:1017E00000E000255DB123F00803CD682B4323F012
:1017F000040324F440744D692C438D692C434460E8
:1018000082614A684263036230BC70470000014055
:1018100010B4036A046A24F001040462846924F0A9
:10182000F00444EA021223F00A03194382610162C0
:101830005DF8044B704700BF10B4036A23F0100337
:1018400003628469036A24F4704444EA023223F098
:10185000A00343EA0111826101625DF8044B704705
:10186000836823F0700341F007010B4383607047E6
:1018700010B4846824F47F4442EA032319430C43E0
:1018800084605DF8044B70472DE9F04104460E4634
:10189000036A23F480730362056AD0F80480C76981
:1018A00027F073030F681F4325F400738D6843EA24
:1018B0000525204B984205D003F58063984203D15B
:1018C000012302E0012300E000235BB3F36833B19E
:1018D000082B04D0184841F20D3102F003FCB36923
:1018E000B3F5007F05D023B1134841F20E3102F069
:1018F000F9FB7369B3F5807F05D023B10E4841F23F
:101900000F3102F0EFFB25F40065F36845EA03258B
:1019100025F4806528F44058736948EA0318B369D0
:1019200048EA0318C4F80480E7617368E36325623A
:10193000BDE8F08100000140984E00082DE9F0411B
:1019400004460F46036A23F480530362056AD0F805
:101950000480C66926F4E6430E6843EA062625F4A9
:1019600000538D6843EA0535114B984205D003F5C5
:101970008063984203D1012302E0012300E00023A9
:1019800073B17B69B3F5807F05D023B1094841F27B
:10199000533102F0A7FB28F480487B6948EA83189A
:1019A000C4F80480E6617B6823642562BDE8F081A9
:1019B00000000140984E000810B504460368234A11
:1019C000934237D0B3F1804F34D0A2F57C4293429A
:1019D00030D002F5806293422CD002F580629342AF
:1019E00028D002F58062934224D002F580629342AF
:1019F00020D002F5704293421CD002F570529342FF
:101A000018D002F58062934214D002F580629342AE
:101A100010D0A2F5983293420CD002F58062934226
:101A200008D002F58062934204D009484FF4B271A5
:101A300002F058FB2268D36843F00103D3602268A8
:101A4000136843F001031360002010BD0000014043
:101A5000984E000838B590F83830012B00F0CE824F
:101A60000D460446012380F83830022380F83930CF
:101A70000B68B3F5805F16D0B3F5005F13D093B158
:101A8000102B10D0202B0ED0302B0CD0402B0AD096
:101A9000502B08D0602B06D0702B04D0B34840F6F2
:101AA0006D7102F01FFB2268936823F47F4323F0DB
:101AB000770393602B68402B00F0A1810ED8102B88
:101AC00000F01B8203D8002B00F0EE818FE2202B68
:101AD00000F03C82302B00F0628288E2702B51D003
:101AE00006D8502B00F0EC80602B00F043817EE2A2
:101AF000B3F5805F04D0B3F5005F00F0928076E22A
:101B000023689B4A934237D0B3F1804F34D0A2F57B
:101B10007C42934230D002F5806293422CD002F591
:101B20008062934228D002F58062934224D002F56D
:101B30008062934220D002F5704293421CD002F59D
:101B40007052934218D002F58062934214D002F58D
:101B50008062934210D0A2F5983293420CD002F5E5
:101B60008062934208D002F58062934204D07F489D
:101B700040F6797102F0B6FA2268936823F0070301
:101B8000936034E223687A4A934217D0B3F1804FCE
:101B900014D0A2F57C42934210D002F580629342A9
:101BA0000CD002F58062934208D002F5784293424D
:101BB00004D06E4840F6827102F094FA6B68B3F577
:101BC000004F0AD04BB143B1022B06D00A2B04D0F0
:101BD000664840F6847102F085FAAB686BB1B3F5E4
:101BE000805F0AD0B3F5005F07D0B3F5405F04D043
:101BF0005E4840F6857102F075FAEB680F2B04D948
:101C00005A4840F6867102F06DFA2068A9686A6841
:101C1000EB68FFF72DFE2268936843F0770393602B
:101C2000E5E12368524A934217D0B3F1804F14D0B4
:101C3000A2F57C42934210D002F5806293420CD010
:101C400002F58062934208D002F57842934204D0B4
:101C5000464840F69A7102F045FA6B68B3F5004FBA
:101C60000AD04BB143B1022B06D00A2B04D03F4817
:101C700040F69C7102F036FAAB686BB1B3F5805F49
:101C80000AD0B3F5005F07D0B3F5405F04D0374802
:101C900040F69D7102F026FAEB680F2B04D9334809
:101CA00040F69E7102F01EFA2068A9686A68EB6827
:101CB000FFF7DEFD2268936843F48043936096E16A
:101CC00023682B4A93422FD0B3F1804F2CD0A2F53A
:101CD0007C42934228D002F58062934224D002F5E0
:101CE0008062934220D002F5784293421CD002F5E4
:101CF0007052934218D002F58062934214D002F5DC
:101D00008062934210D0A2F5983293420CD002F533
:101D10008062934208D002F58062934204D0134857
:101D200040F6AC7102F0DEF96B68B3F5004F0AD0F3
:101D30004BB143B1022B06D00A2B04D00B4840F61E
:101D4000AF7102F0CFF9EB680F2B04D907484FF4BD
:101D50007B6102F0C7F920686968EA68FFF758FDFF
:101D600020685021FFF77CFD41E100BF984E00083C
:101D7000000001402368A24A93421FD0B3F1804F74
:101D80001CD0A2F57C42934218D002F580629342A7
:101D900014D002F58062934210D002F5784293424B
:101DA0000CD002F57052934208D0A2F594329342BF
:101DB00004D0944840F6BA7102F094F96B68B3F518
:101DC000004F0AD04BB143B1022B06D00A2B04D0EE
:101DD0008C4840F6BD7102F085F9EB680F2B04D9F1
:101DE000884840F6BE7102F07DF920686968EA68AB
:101DF000FFF722FD20686021FFF732FDF7E023683E
:101E00007F4A93422FD0B3F1804F2CD0A2F57C4271
:101E1000934228D002F58062934224D002F580627A
:101E2000934220D002F5784293421CD002F57052C2
:101E3000934218D002F58062934214D002F580627A
:101E4000934210D0A2F5983293420CD002F58062F2
:101E5000934208D002F58062934204D0694840F66C
:101E6000C87102F03FF96B68B3F5004F0AD04BB16F
:101E700043B1022B06D00A2B04D0624840F6CB7146
:101E800002F030F9EB680F2B04D95E4840F6CC71B4
:101E900002F028F920686968EA68FFF7B9FC206851
:101EA0004021FFF7DDFCA2E02368554A93421FD092
:101EB000B3F1804F1CD0A2F57C42934218D002F5BA
:101EC0008062934214D002F58062934210D002F5F2
:101ED000784293420CD002F57052934208D0A2F59A
:101EE0009432934204D0474840F6D67102F0FAF893
:101EF00020680021FFF7B4FC79E02368404A934250
:101F00001FD0B3F1804F1CD0A2F57C42934218D071
:101F100002F58062934214D002F58062934210D0A1
:101F200002F5784293420CD002F57052934208D0E9
:101F3000A2F59432934204D0324840F6DC7102F0AC
:101F4000D1F820681021FFF78BFC50E023682C4A61
:101F500093421FD0B3F1804F1CD0A2F57C42934234
:101F600018D002F58062934214D002F58062934249
:101F700010D002F5784293420CD002F57052934291
:101F800008D0A2F59432934204D01E4840F6E27184
:101F900002F0A8F820682021FFF762FC27E0236800
:101FA000174A93421FD0B3F1804F1CD0A2F57C4258
:101FB000934218D002F58062934214D002F58062F9
:101FC000934210D002F5784293420CD002F5705241
:101FD000934208D0A2F59432934204D0094840F6C7
:101FE000E87102F07FF820683021FFF739FC012307
:101FF00084F83930002084F8380038BD022038BD1C
:1020000000000140984E0008704700BF704700BFB5
:10201000704700BF704700BF10B5044603681A69D7
:1020200012F0020F17D0DA6812F0020F13D06FF01F
:1020300002021A610123037603689B6913F0030F00
:1020400002D0FFF7E3FF04E0FFF7DEFF2046FFF7D3
:10205000DFFF0023237623681A6912F0040F19D0DA
:10206000DA6812F0040F15D06FF004021A6102232F
:10207000237623689B6913F4407F03D02046FFF743
:10208000C5FF05E02046FFF7BFFF2046FFF7C0FF72
:102090000023237623681A6912F0080F19D0DA6832
:1020A00012F0080F15D06FF008021A61042323768E
:1020B0002368DB6913F0030F03D02046FFF7A6FF68
:1020C00005E02046FFF7A0FF2046FFF7A1FF002311
:1020D000237623681A6912F0100F19D0DA6812F00B
:1020E000100F15D06FF010021A61082323762368B1
:1020F000DB6913F4407F03D02046FFF787FF05E03C
:102100002046FFF781FF2046FFF782FF002323765A
:1021100023681A6912F0010F09D0DA6812F0010F72
:1021200005D06FF001021A61204601F0BFFD23685F
:102130001A6912F0800F09D0DA6812F0800F05D00A
:102140006FF080021A61204600F0E0FD23681A69F2
:1021500012F0400F09D0DA6812F0400F05D06FF08E
:1021600040021A612046FFF755FF23681A6912F0F2
:10217000200F09D0DA6812F0200F05D06FF020028E
:102180001A61204600F0C0FD10BD00BF0368454A3B
:10219000904214D0B0F1804F13D0A2F57C4290420F
:1021A00011D002F5806290420FD002F58062904219
:1021B0000DD002F5784290420BD101220AE00122B3
:1021C00008E0012206E0012204E0012202E00122EF
:1021D00000E000221AB123F070034A681343314A29
:1021E00090422CD0B0F1804F2BD0A2F57C4290428F
:1021F00029D002F58062904227D002F58062904299
:1022000025D002F57842904223D002F570529042D8
:1022100021D002F5806290421FD002F58062904288
:102220001DD0A2F5983290421BD002F580629042F8
:1022300019D002F58062904217D1012216E00122E6
:1022400014E0012212E0012210E001220EE001223E
:102250000CE001220AE0012208E0012206E001224E
:1022600004E0012202E0012200E000221AB123F47E
:102270004073CA68134303608B68C3620B68836250
:10228000084B984205D003F58063984203D101239F
:1022900002E0012300E000230BB10B69036301237B
:1022A000436170470000014000286ED010B504461D
:1022B0000368374A934236D0B3F1804F33D0A2F54A
:1022C0007C4293422FD002F5806293422BD002F5DC
:1022D0008062934227D002F58062934223D002F5B8
:1022E000806293421FD002F5704293421BD002F5E8
:1022F0007052934217D002F58062934213D002F5D8
:10230000806293420FD0A2F5983293420BD002F52F
:102310008062934207D002F58062934203D01D4849
:10232000D92101F0DFFEA3685BB1102B09D0202B6F
:1023300007D0402B05D0602B03D01648DA2101F0DE
:10234000D1FE23694BB1B3F5807F06D0B3F5007F92
:1023500003D01048DB2101F0C5FE94F8393013F0AA
:10236000FF0F05D1002384F83830204601F028FF04
:10237000022384F83930214651F8040BFFF706FF99
:10238000012384F83930002010BD0120704700BFC0
:1023900000000140984E0008002871D010B5044696
:1023A0000368384A934237D0B3F1804F34D0A2F556
:1023B0007C42934230D002F5806293422CD002F5E9
:1023C0008062934228D002F58062934224D002F5C5
:1023D0008062934220D002F5704293421CD002F5F5
:1023E0007052934218D002F58062934214D002F5E5
:1023F0008062934210D0A2F5983293420CD002F53D
:102400008062934208D002F58062934204D01E4855
:1024100040F2F33101F066FEA36863B1102B0AD0DD
:10242000202B08D0402B06D0602B04D016484FF448
:102430007D7101F057FE236953B1B3F5807F07D05A
:10244000B3F5007F04D0104840F2F53101F04AFEA8
:1024500094F8393013F0FF0F05D1002384F8383099
:10246000204601F02DFF022384F83930214651F82F
:10247000040BFFF78BFE012384F83930002010BDD8
:102480000120704700000140984E0008002800F02D
:10249000C980F8B505460C460368634A93421FD0CD
:1024A000B3F1804F1CD0A2F57C42934218D002F5C4
:1024B0008062934214D002F58062934210D002F5FC
:1024C000784293420CD002F57052934208D0A2F5A4
:1024D0009432934204D055484FF40F6101F002FE4C
:1024E0002368013B022B04D9504840F6F10101F06A
:1024F000F9FDA368013B022B04D94C4840F6F201D8
:1025000001F0F0FDA369013B022B04D9474840F6D6
:10251000F30101F0E7FD636843B1022B06D00A2BFB
:1025200004D0424840F6F40101F0DCFD636943B198
:10253000022B06D00A2B04D03C4840F6F50101F0EE
:10254000D1FDE36853B1042B08D0082B06D00C2B27
:1025500004D0364840F6F60101F0C4FDE36953B1FA
:10256000042B08D0082B06D00C2B04D02F4840F6A3
:10257000F70101F0B7FD23690F2B04D92B4840F672
:10258000F80101F0AFFD236A0F2B04D9274840F66C
:10259000F90101F0A7FD95F8393013F0FF0F05D1CF
:1025A000002385F83830284601F03CFE022385F8E8
:1025B00039302A68936823F007039360294651F85D
:1025C000040BFFF7E3FD286883688269016A2668C7
:1025D0001E4322F4407222F00302A368A76943EA73
:1025E0000723134323F47C4323F0FC03E268E769E9
:1025F00042EA072213432769226A120342EA0712BA
:10260000134321F0AA016268646942EA04120A4392
:10261000866029688B612B681A62012385F839303E
:102620000020F8BD0120704700000140984E0008CE
:102630002DE9F04104460E46036A23F010030362BD
:10264000056AD0F80480876927F4E6430F6843EAF7
:10265000072725F020038D6843EA0515164B98429D
:1026600005D003F58063984203D1012302E00123E2
:1026700000E00023BBB1F36833B1082B04D00F484E
:1026800041F2FB1101F02EFD25F08005F36845EACB
:10269000031525F0400528F44068736948EA83086B
:1026A000B36948EA8308C4F80480A7617368A36328
:1026B0002562BDE8F08100BF00000140984E00088F
:1026C00090F83830012B00F02E8170B516460D467B
:1026D0000446012380F8383062B1042A0AD0082A5F
:1026E00008D00C2A06D0182A04D0904840F63E4163
:1026F00001F0F8FC2B68602B06D0702B04D08B48BF
:1027000040F63F4101F0EEFCAB6833B1022B04D040
:1027100086484FF4446101F0E5FC2B6933B1042B8A
:1027200004D0824840F6414101F0DCFC022384F8E9
:1027300039300C2E00F2F080DFE816F00D00EE00CC
:10274000EE00EE005500EE00EE00EE008E00EE0012
:10275000EE00EE00BE002368754A93422FD0B3F11D
:10276000804F2CD0A2F57C42934228D002F58062A3
:10277000934224D002F58062934220D002F5784241
:1027800093421CD002F57052934218D002F5806239
:10279000934214D002F58062934210D0A2F5983291
:1027A00093420CD002F58062934208D002F5806219
:1027B000934204D05D4840F6494101F093FC206803
:1027C0002946FEF7F3FF2268936943F008039361FB
:1027D0002268936923F004039361226891692B694D
:1027E0000B43936198E02368514A93421FD0B3F1A1
:1027F000804F1CD0A2F57C42934218D002F5806233
:10280000934214D002F58062934210D002F57842D0
:1028100093420CD002F57052934208D0A2F5943244
:10282000934204D0414840F6584101F05BFC2068D7
:102830002946FFF7FDFE2268936943F40063936124
:102840002268936923F480639361226893692969FC
:1028500043EA012393615FE02368354A934217D02E
:10286000B3F1804F14D0A2F57C42934210D002F510
:10287000806293420CD002F58062934208D002F548
:102880007842934204D0294840F6674101F02AFC7F
:1028900020682946FEF7F8FF2268D36943F0080351
:1028A000D3612268D36923F00403D3612268D1691C
:1028B0002B690B43D3612FE023681D4A934217D045
:1028C000B3F1804F14D0A2F57C42934210D002F5B0
:1028D000806293420CD002F58062934208D002F5E8
:1028E0007842934204D0114840F6764101F0FAFB59
:1028F00020682946FFF722F82268D36943F4006371
:10290000D3612268D36923F48063D3612268D369D9
:10291000296943EA0123D361012384F83930002077
:1029200084F8380070BD0220704700BF984E000840
:102930000000014070B504460E461546254B9842EE
:102940002FD0B0F1804F2CD0A3F57C43984228D0F3
:1029500003F58063984224D003F58063984220D029
:1029600003F5784398421CD003F57053984218D071
:1029700003F58063984214D003F58063984210D029
:10298000A3F5983398420CD003F58063984208D0A1
:1029900003F58063984204D00F4841F27E2101F094
:1029A000A1FB66B1042E0AD0082E08D00C2E06D04A
:1029B000182E04D0084841F27F2101F093FB012337
:1029C000B340226A22EA03032362236AB5401D430F
:1029D000256270BD00000140984E000838B50446DD
:1029E0000D4603682D4A934212D0B3F1804F0FD0A9
:1029F000A2F57C4293420BD002F58062934207D04D
:102A000002F58062934203D002F57842934206D1E8
:102A100035B3042D24D0082D22D00C2D20D0204AEF
:102A2000934202D1E5B1042D1AD01E4A934200D13F
:102A3000B5B11D4A934200D195B11C4A934202D1CF
:102A400075B1042D0CD01A4A934200D145B1194AF0
:102A5000934200D125B1184840F2544101F042FBA5
:102A6000206829460122FFF765FF23680B4A93423D
:102A700005D002F58062934203D1012202E00122D7
:102A800000E000221AB15A6C42F400425A642268F3
:102A9000136843F001031360002038BD00000140BB
:102AA000004001400044014000480140001800403F
:102AB000001C004000200040984E000838B5044635
:102AC0000D460368214A93421FD0B3F1804F1CD0BA
:102AD000A2F57C42934218D002F58062934214D052
:102AE00002F58062934210D002F5784293420CD0F6
:102AF00002F57052934208D0A2F59432934204D06A
:102B0000134840F67E1101F0EDFA15B1042D06D000
:102B10000BE0206800210122FFF70CFF0FE0206886
:102B200004210122FFF706FF09E0206800210122AD
:102B3000FFF700FF206804210122FFF7FBFE226857
:102B4000136843F001031360002038BD000001400A
:102B5000984E000870B504460E461546174B98422D
:102B600017D0B0F1804F14D0A3F57C43984210D019
:102B700003F5806398420CD003F58063984208D037
:102B800003F57843984204D00D4840F2397101F0C2
:102B9000A9FA46B1042E06D0082E04D0084840F207
:102BA0003A7101F09FFA0423B340226A22EA030338
:102BB0002362236AB5401D43256270BD00000140B9
:102BC000C84E000838B504460D460368104A9342C3
:102BD00003D002F58062934204D145B1042D06D0A2
:102BE000082D04D00B484FF4647101F07BFA206883
:102BF00029460422FFF7AEFF2268536C43F40043DA
:102C000053642268136843F001031360002038BD49
:102C100000000140C84E000838B504460D46036860
:102C2000374A934227D0B3F1804F24D0A2F57C429B
:102C3000934220D002F5806293421CD002F580625C
:102C4000934218D002F58062934214D002F580625C
:102C5000934210D002F5704293420CD002F57052AC
:102C6000934208D0A2F59432934204D025484FF401
:102C7000CB6101F037FA2B6893B1102B10D0202BC9
:102C80000ED0302B0CD0402B0AD0502B08D0602B0C
:102C900006D0702B04D01B4840F2596101F022FA93
:102CA0006B68802B05D023B1164840F25A6101F0C1
:102CB00019FA94F83830012B1FD0012284F83820FB
:102CC000022384F8393021684B6823F070034B608D
:102CD000216848682B6803434B6021688B6823F0A8
:102CE00080038B60216888686B6803438B6084F87D
:102CF0003920002084F8380038BD022038BD00BFDC
:102D000000000140C84E0008704700BF704700BF78
:102D100090F83930DBB2212B2AD18368B3F5805F7C
:102D20000FD1036A02681B88C3F308035360036969
:102D30001BB9036A0233036209E0036A01330362C9
:102D400005E00268036A591C01621B785360C38C5A
:102D5000013B9BB2C3846BB90268D36823F0800344
:102D6000D3600268D36843F04003D360002070470B
:102D700002207047002070472DE9F843044642685E
:102D8000AE4B9A4204D9AE4840F2DF6101F0AAF995
:102D9000E3683BB1B3F5005F04D0A9484FF4DC61B0
:102DA00001F0A0F9236953B1B3F5806F07D0B3F5F3
:102DB000C06F04D0A24840F2E16101F093F9636969
:102DC0004FF6F372134200D123B99D4840F2E261FD
:102DD00001F088F92268136923F44053E1680B433A
:102DE00013612068C36823F4164323F00C03A16821
:102DF0002269114362691143E2690A431343C360C4
:102E00002268536923F44073A1690B435361E3695A
:102E1000B3F5004F40F0B580266803F1804303F519
:102E200010439E4203D003F580639E4254D1FEF7C7
:102E3000C9FB00EB800000EB800065686D00B0FB13
:102E4000F5F5804FA7FB05356D092D01FEF7BAFB9F
:102E500000EB800000EB800063685B00B0FBF3F8E0
:102E6000FEF7B0FB00EB800000EB800063685B00C6
:102E7000B0FBF3F3A7FB03235B094FF0640909FBE5
:102E80001383DB003233A7FB03231B0903F4F8731E
:102E90001D44FEF797FB00EB800000EB80006368A9
:102EA0005B00B0FBF3F8FEF78DFB00EB800000EB5E
:102EB000800063685B00B0FBF3F3A7FB03235B09AF
:102EC00009FB1383DB003233A7FB0323C3F3421355
:102ED0001D44B560BDE8F883FEF75EFB00EB8000A3
:102EE00000EB800065686D00B0FBF5F5554FA7FB62
:102EF00005356D092D01FEF74FFB00EB800000EB5F
:102F0000800063685B00B0FBF3F8FEF745FB00EB65
:102F1000800000EB800063685B00B0FBF3F3A7FB6D
:102F200003235B094FF0640909FB1383DB00323391
:102F3000A7FB03231B0903F4F8731D44FEF72CFBC6
:102F400000EB800000EB800063685B00B0FBF3F8EF
:102F5000FEF722FB00EB800000EB800063685B0063
:102F6000B0FBF3F3A7FB03235B0909FB1383DB002F
:102F70003233A7FB0323C3F342131D44B560BDE8FE
:102F8000F8832668304B9E4203D003F580639E424F
:102F90005CD1FEF717FB00EB800000EB800065685A
:102FA000AD00B0FBF5F5274FA7FB05356D092D01E9
:102FB000FEF708FB00EB800000EB800063689B00DD
:102FC000B0FBF3F8FEF7FEFA00EB800000EB8000A8
:102FD00063689B00B0FBF3F3A7FB03235B094FF08F
:102FE000640909FB13831B013233A7FB03235B092D
:102FF00003F0F0031D44FEF7E5FA00EB800000EB60
:10300000800063689B00B0FBF3F8FEF7DBFA00EB8F
:10301000800000EB800063689B00B0FBF3F3A7FB2C
:1030200003235B0909FB13831B013233A7FB032333
:10303000C3F343131D44B560BDE8F883A037A00077
:10304000FC4E00081F85EB5100100140FEF7A4FA6A
:1030500000EB800000EB80006568AD00B0FBF5F58B
:10306000254FA7FB05356D092D01FEF795FA00EBFD
:10307000800000EB800063689B00B0FBF3F8FEF774
:103080008BFA00EB800000EB800063689B00B0FBD4
:10309000F3F3A7FB03235B094FF0640909FB1383D8
:1030A0001B013233A7FB03235B0903F0F0031D442C
:1030B000FEF772FA00EB800000EB800063689B0073
:1030C000B0FBF3F8FEF768FA00EB800000EB80003D
:1030D00063689B00B0FBF3F3A7FB03235B0909FBC9
:1030E00013831B013233A7FB0323C3F343131D4494
:1030F000B560BDE8F88300BF1F85EB512DE9F041B5
:1031000006460C4690461D46FDF7B8F90746B8F14D
:10311000000F28D057E0B5F1FF3F24D025B1FDF7CF
:10312000ADF9C01BA8421ED93268D36823F08003D2
:10313000D3603268D36823F02003D3603268D36849
:1031400023F48073D3603268536923F00103536121
:10315000202386F8393086F83A30002386F8383054
:103160000320BDE8F08133681B682340A342D2D11D
:103170000020BDE8F081B5F1FF3F24D025B1FDF777
:103180007DF9C01BA8421ED93268D36823F08003A2
:10319000D3603268D36823F02003D3603268D368E9
:1031A00023F48073D3603268536923F001035361C1
:1031B000202386F8393086F83A30002386F83830F4
:1031C0000320BDE8F08133681B682340A342D2D0BE
:1031D0000020BDE8F08100BF002800F0868010B517
:1031E000044683691BB30368414A93420FD0A2F59A
:1031F0004C4293420BD002F58062934207D002F515
:103200004C42934203D03B48FB2100F06BFFA36983
:1032100053B3B3F5807F27D0B3F5007F24D0B3F547
:10322000407F21D03348FC2100F05CFF1CE00368A4
:103230002F4A934218D0A2F54C42934214D002F583
:103240008062934210D002F5806293420CD002F566
:103250008062934208D002F54442934204D025484C
:103260004FF4807100F03EFFA3683BB1B3F5805F7F
:1032700004D020484FF4817100F034FFE3693BB182
:10328000B3F5004F04D01B4840F2031100F02AFFB1
:1032900094F8393013F0FF0F05D1002384F838304B
:1032A000204601F041F8242384F839302268D3689D
:1032B00023F40053D3602046FFF75EFD22681369B4
:1032C00023F4904313612268536923F02A03536166
:1032D0002268D36843F40053D3600020E0632023C6
:1032E00084F8393084F83A3010BD0120704700BFAF
:1032F00000100140FC4E000870B504461E4690F8D0
:103300003930DBB2202B48D10D46002947D0002AA6
:1033100047D090F83830012B45D0012380F8383061
:103320000023C363212380F839308284C28422E0E1
:10333000013BE384A368B3F5805F11D1204680216F
:1033400000223346FFF7DAFE78BB22682B88C3F3EE
:103350000803536023690BB902350CE001350AE01C
:103360002046802100223346FFF7C8FEF8B92368C3
:103370002A785A600135E38C002BD9D120464021B0
:1033800000223346FFF7BAFE034690B9202284F8A4
:103390003920002284F838200CE002230AE00123BF
:1033A00008E0012306E0022304E0032302E00323F4
:1033B00000E00323184670BD90F83A30DBB2202BB2
:1033C00023D121B32AB390F83830012B23D0012325
:1033D00080F8383081628285C2850023C36322224F
:1033E00080F83A200168CA6842F48072CA600168B5
:1033F0004A6942F001024A6180F838300168CA68BF
:1034000042F02002CA60184670470220704701202F
:103410007047012070470220704700BF704700BF0F
:1034200008B50168CB6823F04003CB60202380F807
:103430003930FFF7F3FF002008BD00BF08B590F852
:103440003A30DBB2222B43D18368B3F5805F13D1CE
:10345000826A036943B903685B68C3F30803138096
:10346000836A0233836218E003685B68DBB213800F
:10347000836A0133836210E0036933B9836A5A1C9B
:103480008262026852681A7007E0826A531C836283
:1034900003685B6803F07F031370C38D013B9BB22D
:1034A000C385BBB90268D36823F02003D3600268E8
:1034B000D36823F48073D3600268536923F0010357
:1034C0005361202380F83A3000F016FC002008BD3C
:1034D000022008BD002008BD704700BF10B584B0B1
:1034E000044603681968DA6802F4807211F0010F6B
:1034F0000BD052B1002200921A6800925A680092D2
:10350000009AC26B42F00102C26319685A6902F064
:10351000010211F0020F0BD052B1002201921A6881
:1035200001925A680192019AE26B42F00402E2634E
:1035300019685A6902F0010211F0040F0BD052B160
:10354000002202921A6802925A680292029AE26B70
:1035500042F00202E26319685A6902F0010211F0B6
:10356000080F0BD052B1002203921A6803925A68D6
:103570000392039AE26B42F00802E2631A68DB6886
:1035800003F0200312F0200F03D013B12046FFF701
:1035900055FF23681A68DB6803F0800312F0800F80
:1035A00003D013B12046FFF7B3FB23681A68DB682A
:1035B00003F0400312F0400F03D013B12046FFF791
:1035C0002FFFE36B3BB1202384F8393084F83A3085
:1035D0002046FFF781FF04B010BD00BFFEE700BF2B
:1035E00008B50D4B1B6813B90C4A0B4B1A600A4BFC
:1035F0001A68C31C23F00303134409498B4206D9FC
:1036000000F0DEFE0C2303604FF0FF3008BD0249DE
:103610000B60104608BD00BF900000208003002012
:1036200000FC012001230360014B0B60704700BFC9
:10363000040000200FB400B583B004AB53F8042B92
:1036400001930848802100F0A3FF011E03DD054817
:1036500000F03CF80146084603B05DF804EB04B006
:10366000704700BF980000202DE9F04385B0044664
:103670000F46435C13BB042528462146ABBE0446D7
:103680001FE03546102E28BF1025002306E014F851
:10369000011B04AA1A4402F8101C0133AB42F6D3F2
:1036A00004AA1344002203F8102CE9464FF0040842
:1036B00040464946ABBE8046761B00E00E46002ED3
:1036C000DFD1384605B0BDE8F08300BF08B5FFF78D
:1036D000CBFF08BD08B500F097F8024B024A9A608C
:1036E00008BD00BF00ED00E00000000808B500F0D4
:1036F000ABF808BDF8B504460D4617461E462648E9
:10370000FFF798FF25482168FFF794FF2448616878
:10371000FFF790FF2348A168FFF78CFF2248E1687C
:10372000FFF788FF21482169FFF784FF204861697E
:10373000FFF780FF1F48A169FFF77CFF1E48E16982
:10374000FFF778FF1D48FFF775FF1D482946FFF773
:1037500071FF1C4CE16A1C48FFF76CFF216B1B4892
:10376000FFF768FFE16B1A48FFF764FF15F0800F61
:1037700003D018483946FFF75DFF15F4004F03D01A
:1037800015483146FFF756FF1448FFF753FF14481A
:103790000699FFF74FFFF8BD2C4F00083C4F00087B
:1037A0004C4F00085C4F00086C4F00087C4F00082D
:1037B0008C4F00089C4F0008AC4F0008BC4F00081D
:1037C000C84F000800ED00E0D84F0008E84F00089F
:1037D000F84F00080850000818500008285000084A
:1037E0003050000883691A888A4207D10268033A78
:1037F000012A05D8023383610120704700207047F9
:1038000000207047FEE700000C4B1A6842F00102EE
:103810001A60002199601A6822F0847222F48032C2
:103820001A60074A5A601A6822F480221A60D96026
:103830004FF00062034B9A60704700BF00380240AF
:103840001030002400ED00E0224B9B6803F00C03D5
:10385000042B07D0082B09D0002B2DD11E4A1F4B5B
:103860001A602CE01E4A1D4B1A6028E0194B5A685A
:103870005B6803F03F0312F4800F09D0184AB2FBD3
:10388000F3F2144B5B68C3F3881303FB02F208E006
:10389000114AB2FBF3F30F4A5168C1F3881101FBDF
:1038A00003F20C4B5B68C3F3014301335B00B2FBD3
:1038B000F3F30A4A136002E0074A084B1A60054B0B
:1038C0009B68C3F30313074AD15C044A1368CB40D7
:1038D00013607047003802400024F4000C00002000
:1038E00040787D01745000082DE9F04F8BB0002422
:1038F0000094584B1A6B42F004021A631A6B02F0E0
:1039000004020092009A01941A6B42F080021A633A
:103910001A6B02F080020192019A02941A6B42F033
:1039200001021A631A6B02F001020292029A0394D6
:103930001A6B42F002021A631A6B02F0020203923F
:10394000039A04941A6B42F008021A631B6B03F08B
:1039500008030493049B4EF21F2305930325069549
:1039600007943D4E304605A9FDF7BCF840F6041318
:10397000059306950794DFF8EC80404605A9FDF70E
:10398000B1F84FF0600BCDF814B0012506950794FF
:103990000894404605A9FDF7A5F824230593DFF810
:1039A000C890CDF8189007942C4F384605A9FDF71C
:1039B00099F84FF6104305930695079408943846F6
:1039C00005A9FDF78FF84FF0C00ACDF814A00695B1
:1039D00007940894304605A9FDF784F84FF48073E6
:1039E0000593CDF818900794304605A9FDF77AF8AD
:1039F0004FF48053059306940794404605A9FDF7BC
:103A000071F84FF00409CDF81490069507940894C6
:103A1000134805A9FDF766F8404659462246FDF7CA
:103A2000F3F938464FF441612246FDF7EDF9384687
:103A30004FF470412A46FDF7E7F9304651462A46D1
:103A4000FDF7E2F9064849462246FDF7DDF90BB0DD
:103A5000BDE8F08F00380240000802400004024038
:103A6000000C0240000002400000111070B584B04C
:103A70000D4C0E4B236000256560A5602561A56196
:103A80002562E562E5600126E66125636661204600
:103A9000FCF7B2FD03230093019602952046694688
:103AA000FCF794FE04B070BD6002002000200140CD
:103AB00008B50B480B4B03604FF48273436000233F
:103AC0008360C360036143614FF400728261C3612C
:103AD0000362436283620A23C362FDF789FD08BD66
:103AE00008020020003C004030B58DB0104D4FF072
:103AF00080432B6000246C60AC604FF0FF33EB60C0
:103B00002C6101230393049405930694079408946D
:103B100009930A940B94284603A9FEF7B7FC019475
:103B20000294284601A9FFF777F80DB030BD00BF19
:103B30004003002030B58DB00F4D104B2B6000249A
:103B40006C60AC604FF0FF33EB602C61012303939A
:103B50000494059306940794089409930A940B948B
:103B6000284603A9FEF792FC01940294284601A975
:103B7000FFF752F80DB030BD90010020000C00405E
:103B800030B58BB0184C194B236000256560A560DB
:103B900040F2CF73E36025612046FEF7FDFB0895F8
:103BA0000995204608A9FFF737F86023019302958D
:103BB00003950595204601A92A46FEF781FD20467A
:103BC00001A90422FEF77CFD204601A90822FEF788
:103BD00077FD204601A90C22FEF772FD204600F079
:103BE00087FB0BB030BD00BF34010020000800404F
:103BF00008B50848084B03604FF4E13343600023E5
:103C00008360C36003610C2242618361C361FFF77B
:103C1000E3FA08BDA80200200010014030B587B0CB
:103C20000E4C0F4B23604FF47A7363600025A56040
:103C3000E360256165612046FEF736FB06A94FF477
:103C4000805341F8103D2046FDF704FF0095019593
:103C500020466946FEF7E0FF07B030BDF0020020C5
:103C60000000014030B587B00E4C0F4B23603F235E
:103C700063600025A56040F2CF73E36025612046B4
:103C8000FEF712FB06A94FF4805341F8103D204681
:103C9000FDF7E0FE0095019520466946FEF7BCFF62
:103CA00007B030BDCC0100200004004002680D4B7D
:103CB0009A4216D110B44FF08040436A5B420A4AE0
:103CC00013600A494A6A0A4B1A600A4A002353637E
:103CD0004FF4FA749463D363136443624B625DF8E8
:103CE000044B70470004004070010020000C0040AD
:103CF000E80200200008004008B50268164B9A420E
:103D000028D1164B187830B108E00021144AD1545C
:103D10000133DBB200E00023092BF6D9114B1B78ED
:103D20005AB2452A08D042B2072A05DC0C498B5406
:103D300001300A4B187008E040B20023084A1354BF
:103D4000064A13700122084B1A70084805490122DF
:103D5000FFF732FB08BD00BF001001401901002031
:103D60002C0300207801002018010020A802002068
:103D700070B594B000240194234B1A6C42F0805229
:103D80001A641B6C03F080530193019B02941F4B38
:103D90001A6842F480421A601B6803F4804302935D
:103DA000029B01230893099302250E954FF480038B
:103DB0000F931023109380231193129504261396CA
:103DC00008A8FDF74BF80F230393049505944FF4CF
:103DD000A05306934FF48053079303A80321FDF7E4
:103DE00061FAFDF7BFFB0A4BA3FB00308009FCF72B
:103DF00041FE3046FCF754FE4FF0FF30214622468C
:103E0000FCF7E2FD14B070BD0038024000700040C5
:103E1000D34D621010B5FCF70FFBFFF7A9FFFFF7BA
:103E200063FDFFF723FEFFF743FEFFF75DFEFFF79D
:103E3000A7FEFFF77FFEFFF7DBFEFFF7EFFEFFF7C2
:103E400011FF8E4C20464FF480510022FCF7DCFF1E
:103E500020464FF400510122FCF7D6FF884840214C
:103E6000FCF7ECFF874C20460021FEF7B7FD20460B
:103E70000021FEF7A7FE20460421FEF7AFFD2046F5
:103E80000421FEF79FFE20460821FEF7A7FD2046ED
:103E90000821FEF797FE20460C21FEF79FFD2046E5
:103EA0000C21FEF78FFE784878490122FFF784FA4B
:103EB00077481821FEF702FE76481821FEF7FEFD2E
:103EC0007548FDF779FD754B00225A634FF4FA717E
:103ED0009963DA631A64002304E00021704AD15424
:103EE0000133DBB2132BF8D96E4B1A686C4C2046A9
:103EF0006D4900F06BFA6448214614226423FFF7F1
:103F0000FBF93220FCF7C0FA002304E00021644AE8
:103F1000D1540133DBB2132BF8D9644B1A68604CCF
:103F20002046634900F052FA574821461422642380
:103F3000FFF7E2F93220FCF7A7FA002304E00021A2
:103F4000574AD1540133DBB2132BF8D9594B1A68B5
:103F5000534C2046584900F039FA4B482146142268
:103F60006423FFF7C9F93220FCF78EFA002304E03E
:103F700000214B4AD1540133DBB2132BF8D94F4BFC
:103F80001A68474C20464E4900F020FA3E48214628
:103F900014226423FFF7B0F93220FCF775FA0023EE
:103FA00004E000213E4AD1540133DBB2132BF8D98F
:103FB000444B1A683A4C2046434900F007FA32480D
:103FC000214614226423FFF797F93220FCF75CFAAC
:103FD000002304E00021324AD1540133DBB2132B19
:103FE000F8D93A4B1A682E4C2046394900F0EEF9C0
:103FF0002548214614226423FFF77EF93220FCF77E
:1040000043FA344B1B7813F0FF0F3FF464AF324B8D
:1040100093F900304C2B04D1304800F0CDF9214BFE
:1040200018602D4B93F90030522B04D12B4800F02F
:10403000C3F92B4B1860284B93F90030502B04D157
:10404000264800F0B9F91B4B1860234B93F9003058
:10405000492B04D1214800F0AFF9184B18601E4BD2
:1040600093F90030442B04D11C4800F0A5F9154BFE
:1040700018600022174B1A702DE700BF00040240A1
:104080000008024034010020A8020020780100202E
:104090004003002090010020CC01002000080040D7
:1040A0007C010020140000208450000870010020D2
:1040B0008C500008100000209450000818000020C8
:1040C0009C5000081C000020A4500008740100202F
:1040D000AC500008180100202C0300202D03002004
:1040E0002C010020704700BF08B50320FCF74EFCF0
:1040F0004FF0FF3000210A46FCF766FC08BD00BF08
:104100000268164B9A4228D130B587B0002400943B
:1041100003F58C335A6C42F480725A645B6C03F47E
:1041200080730093009B98230193032502950394C9
:104130000B4801A9FCF7D6FC2023019302950394B8
:10414000084801A9FCF7CEFC0195029503940648A6
:1041500001A9FCF7C7FC07B030BD70470020014043
:104160000000024000080240000402400268124BB6
:104170009A421FD100B587B00021009103F5FE33AC
:104180001A6C42F400421A641B6C03F4004300935F
:10419000009B4FF4E0530193022302930391032306
:1041A000049306230593054801A9FCF79BFC07B07F
:1041B0005DF804FB704700BF003C0040000802406F
:1041C00000B583B00368144A934213D100220092D1
:1041D000124B596C41F0010159645B6C03F001030F
:1041E0000093009B19201146FCF7EEFB1920FCF709
:1041F0002DFC0EE00A4A93420BD100230193074B9A
:104200001A6C42F002021A641B6C03F00203019361
:10421000019B03B05DF804FB000001400038024040
:104220000004004070B588B00368B3F1804F24D11A
:104230000024019403F50E331A6C42F001021A6453
:104240001B6C03F001030193019B4FF400430393A4
:10425000022604960594069401250795154803A99E
:10426000FCF740FC082303930496059406940795F5
:10427000114803A9FCF736FC1AE0104A934217D103
:104280000023029302F50B32116C41F00801116416
:10429000126C02F008020292029A03220392022296
:1042A0000492059306930792024803A9FCF71AFCAF
:1042B00008B070BD0000024000040240000C004045
:1042C0000268094B9A420DD182B000230193074B3B
:1042D0001A6C42F004021A641B6C03F0040301938D
:1042E000019B02B0704700BF000800400038024048
:1042F00002680B4B9A4211D100B587B04FF470732E
:10430000019302230293002203920492059305482D
:1043100001A9FCF7E7FB07B05DF804FB704700BF9D
:1043200000080040000402400268124B9A421FD16C
:1043300000B587B0002300930F4B5A6C42F0100277
:104340005A645B6C03F010030093009B4FF4C0634E
:10435000019302230293012303930323049307236E
:104360000593064801A9FCF7BDFB07B05DF804FB07
:10437000704700BF001001400038024000000240BA
:1043800008B5FCF773F8FCF7A9FB08BD08B50248AF
:10439000FDF742FE08BD00BFCC01002008B504486F
:1043A0004021FCF74BFD0348FFF798F808BD00BF1C
:1043B00000080240A802002000210A2200F0B0B844
:1043C000014B1868704700BF800000200EB400B594
:1043D0009CB04FF40271ADF814106FF000410491DD
:1043E00007914FF6FF711DABADF81610084953F851
:1043F000042B029006900868019302A900F032F99C
:10440000029B00221A701CB05DF804EB03B07047E9
:10441000800000202DE9F047404CD4F800900F4672
:104420003D4615F801EB09EB0E04667806F008042A
:1044300004F0FF060CB12F46F2E774462D2C03D191
:10444000BD1C7C78012603E02B2C04BF7C78BD1CAE
:1044500013B1102B0AD15AE0302C56D12C7804F02D
:10446000DF04582C4CD16C7810230235002E14BF79
:104470004FF000486FF000480027B8FBF3FABE4643
:1044800003FB1A8809EB040C9CF801C01CF0040F14
:1044900001D0303C0BE01CF0030C1BD0BCF1010F31
:1044A0000CBF4FF0370C4FF0570CCCEB04049C4280
:1044B00010DAB7F1FF3F0AD0D64506D801D14445FE
:1044C00003DC03FB0E4E012701E04FF0FF3715F828
:1044D000014BD7E77C1C73460AD1002E4FF0220116
:1044E00014BF4FF000436FF0004301602AB911E0A0
:1044F0000EB1CEF100036AB107B1691E116009E087
:104500003024002BB2D10823B0E70A23AEE7302CC9
:10451000ACD1A3E71846BDE8F08700BF84000020B7
:1045200030B51346044A05460C4610682946224613
:10453000BDE83040FFF76EBF8000002030B5141E8C
:104540009BB0054604DA8B2303604FF0FF301CE07C
:104550004FF40272ADF80C2014BF04F1FF32224672
:10456000029205924FF6FF7200910491ADF80E2071
:1045700069461A461E9B00F075F8431CBCBF8B238E
:104580002B6014B1009B00221A701BB030BD0000DC
:1045900073B50093054B06460D4614461868314620
:1045A0002A462346FFF7CAFF02B070BD80000020F4
:1045B0002DE9F0478E68B34282460C4690469946F4
:1045C00040D38A8912F4906F3AD0256809696F1A2E
:1045D0006569022305EB450595FBF3F57B1C4B4410
:1045E0009D4238BF1D4653050FD5294600F03CFBC0
:1045F000064698B121693A4600F0CBFAA38923F424
:10460000906343F08003A38113E02A4600F082FB0D
:10461000064670B95046216900F0E2FA0C23CAF848
:104620000030A38943F04003A3814FF0FF30BDE881
:10463000F087266165613E44ED1B2660A5604E460D
:10464000B14500D24E4632462068414600F0ACFAF1
:10465000A3689B1BA36023681E4426600020BDE85E
:10466000F08700002DE9F0439DB0064603938B8947
:104670001C060D4690460CD50B6953B9402100F03D
:10468000F3FA2860286110B90C233360CCE0402392
:104690006B610023099320238DF8293030238DF896
:1046A0002A3043461C4613F8012B1AB9B4EB08090B
:1046B0000FD002E0252AF5D1F8E7304629464246D8
:1046C0004B46FFF775FF013000F0A980099B4B4472
:1046D00009932378002B00F0A28000234FF0FF32D3
:1046E00004930793059206938DF853301A9304F1BF
:1046F00001084446DFF8489121784846052200F039
:1047000039FA08F10108049B30B1C9EB000001221D
:10471000824013430493ECE7D80644BF20228DF86F
:104720005320190744BF2B228DF8532022782A2AC0
:1047300002D0079923460EE0039A111D12680391D7
:10474000002ABBBF524243F0020307920792B8BF50
:10475000049301340AE01C4601332278303A092AD6
:1047600003D80A2000FB0121F5E7079123782E2BBF
:104770001AD163782A2B0AD1039B1A1D1B68039256
:10478000002BB8BF4FF0FF33023405930CE0611CDF
:1047900000220C4601312378303B092B03D80A2034
:1047A00000FB0232F5E70592DFF898802178404659
:1047B000032200F0DFF938B1049AC8EB000040236F
:1047C000834013430493013421781A488DF828104C
:1047D000062204F1010800F0CDF988B1164B33B977
:1047E000039B073323F007030833039313E003AB62
:1047F0000093304604A92A46104BAFF3008007E02F
:1048000003AB0093304604A92A460C4B00F092F803
:10481000421C074603D0099B3B44099341E7AB89FF
:104820005B0601D4099801E04FF0FF301DB0BDE8F0
:10483000F08300BFC151000800000000B14500082E
:10484000B7510008BD5100082DE9F84391461F46B5
:104850008A680B69DDF820809342B8BF1346C9F817
:10486000003091F8432006460C4612B10133C9F8D6
:1048700000302368990642BFD9F800300233C9F8E6
:104880000030256815F006051CD094F843302268E6
:10489000003318BF012392061FD5E1185A1C30209F
:1048A00081F84300224494F8451082F84310023303
:1048B00013E03046394604F119020123C0470130A4
:1048C00007D00135E368D9F800209B1A9D42F0DB40
:1048D000DBE74FF0FF30BDE8F8833046394604F19E
:1048E0004302C0470130F4D02268D9F80050E36891
:1048F00002F00602042A08BF5D1B2269A3680CBFF0
:1049000025EAE57500259342C4BF9B1AED184FF0C8
:104910000009A9450ADA3046394604F11A02012392
:10492000C0470130D5D009F10109F2E70020BDE808
:10493000F88300002DE9FF410C461746227E6E2ABF
:10494000984606460A9B01F1430100F0AF8012D859
:10495000632A23D00AD8002A00F0BC80582A40F0ED
:10496000CB8084F84520DFF804E257E0642A1ED0AB
:10497000692A1CD0C0E0732A00F0B08009D86F2AE1
:104980002ED0702A40F0B880226842F020022260C7
:104990003FE0752A24D0782A3BD0ADE01A68111D7B
:1049A0001960136884F8423004F14205A8E02068D9
:1049B0001A6810F0800F02D0101D186008E010F087
:1049C000400F02F10400186002D0B2F9003000E09C
:1049D0001368002B3EDA2D225B4284F8432039E035
:1049E00020681A6810F0800F02D0101D186007E0D0
:1049F00010F0400F02F10400186001D0138800E0AD
:104A00001368227EDFF864E16F2A0CBF08220A22B5
:104A10001CE07822DFF858E184F845202268186805
:104A200012F0800F00F104051D6003D1550601D579
:104A3000038800E00368D00744BF42F020022260F0
:104A40001BB9226822F0200222601022002084F884
:104A5000430002E0DFF814E10A226568A560002D3A
:104A6000A2BF206820F00400206003B965B10D46A4
:104A7000B3FBF2F002FB10331EF8033005F8013DE2
:104A800003460028F4D100E00D46082A0BD1236824
:104A9000DA0708D5236962689A42DEBF302305F839
:104AA000013C05F1FF35491B21612EE025681A689C
:104AB000606915F0800F03D0151D1D60136808E0B4
:104AC00015F0400F02F104051D60136801D0188035
:104AD00000E01860002323610D4616E01A68111DDE
:104AE0001960156862682846002100F043F808B193
:104AF000401B6060636804E004F1420584F84220D2
:104B000001232361002384F84330CDF80080304630
:104B1000214603AA3B46FFF797FE013002D14FF032
:104B2000FF301FE0304639462A462369C04701302E
:104B3000F5D023689B0705D4E068039B9842B8BF73
:104B400018460FE00025E368039A9B1A9D42F3DAAA
:104B50003046394604F119020123C0470130DED046
:104B60000135F0E704B0BDE8F08100BFC85100088E
:104B7000D951000810B5C9B202449042034606D08C
:104B80001C788C4200F10100F7D1184610BD0020BE
:104B900010BD10B5431E0A44914204D011F8014BD8
:104BA00003F8014FF8E710BD814210B501EB020395
:104BB00001D3421E0BE09842FBD28118D21AD34295
:104BC00004D013F8014D01F8014DF8E710BD9942EA
:104BD00004D011F8014B02F8014FF8E710BD0000B6
:104BE00030B500293DD051F8042C0B1F1D49002A77
:104BF000B8BF9B180A680C4612B95A600B6030BDEA
:104C000093420DD219685818904201BF5A58521851
:104C10001A6042685A60236030BD994203D80A4640
:104C200051680029F9D1146815199D420AD11B68F1
:104C30002344D0188842136013D1086803441360DA
:104C40004B680DE002D90C23036030BD1C681819B5
:104C5000884204BF08684968596004BF0019186099
:104C6000536030BD2001002070B5CC1C24F003043B
:104C700008340C2C38BF0C24002C064603DA0C2315
:104C80003360002070BD8C42F9D3204A136810466F
:104C90001946A1B10A68121B0ED40B2A03D90A6067
:104CA0008B188C501FE08B420DBF5A684A685A60BF
:104CB000026018BF0B4616E00B464968E9E7144D41
:104CC0002B681BB9304600F04BF82860304621466F
:104CD00000F046F8421C0346D1D0C51C25F0030560
:104CE00085420AD11C6003F10B001A1D20F0070059
:104CF000821A0AD05142995070BD3046E91A00F02C
:104D00002FF80130BBD02B46ECE770BD200100200E
:104D10001C010020F8B5074615460E4621B911467C
:104D2000BDE8F840FFF7A0BF1AB9FFF759FF2846C2
:104D3000F8BD00F025F8A8420ED238462946FFF704
:104D400093FF044650B131462A46FFF722FF38460A
:104D50003146FFF745FF01E03046F8BD2046F8BD7B
:104D600038B5064C0023054608462360FEF738FC9C
:104D7000431C02D1236803B12B6038BD28010020F9
:104D800051F8040C0028BEBF091851F8043CC018A3
:104D9000043870472E2E2F73797374656D2F7372DC
:104DA000632F73746D333266342D68616C2F7374A6
:104DB0006D3332663478785F68616C5F6164632E4E
:104DC000630000002E2E2F73797374656D2F73723C
:104DD000632F73746D333266342D68616C2F737476
:104DE0006D3332663478785F68616C5F636F7274BC
:104DF00065782E63000000002E2E2F737973746582
:104E00006D2F7372632F73746D333266342D686146
:104E10006C2F73746D3332663478785F68616C5FC1
:104E20006770696F2E630000000000000102030438
:104E300001020304060708092E2E2F737973746587
:104E40006D2F7372632F73746D333266342D686106
:104E50006C2F73746D3332663478785F68616C5F81
:104E60007263632E630000002E2E2F7379737465B6
:104E70006D2F7372632F73746D333266342D6861D6
:104E80006C2F73746D3332663478785F68616C5F51
:104E90007370692E630000002E2E2F737973746572
:104EA0006D2F7372632F73746D333266342D6861A6
:104EB0006C2F73746D3332663478785F68616C5F21
:104EC00074696D2E630000002E2E2F737973746544
:104ED0006D2F7372632F73746D333266342D686176
:104EE0006C2F73746D3332663478785F68616C5FF1
:104EF00074696D5F65782E63000000002E2E2F739D
:104F0000797374656D2F7372632F73746D333266AA
:104F1000342D68616C2F73746D3332663478785F2A
:104F200068616C5F756172742E6300005374616315
:104F30006B206672616D653A0A00000020523020D5
:104F40003D2020253038580A000000002052312032
:104F50003D2020253038580A000000002052322021
:104F60003D2020253038580A000000002052332010
:104F70003D2020253038580A0000000020523132F0
:104F8000203D20253038580A00000000204C5220D7
:104F90003D2020253038580A0000000020504320D2
:104FA0003D2020253038580A000000002050535280
:104FB000203D20253038580A000000004653522F6B
:104FC0004641523A0A0000002043465352203D20F9
:104FD00020253038580A00002048465352203D20F2
:104FE00020253038580A00002044465352203D20E6
:104FF00020253038580A00002041465352203D20D9
:1050000020253038580A0000204D4D464152203DA1
:1050100020253038580A00002042464152203D20C9
:1050200020253038580A00004D6973630A000000DB
:10503000204C522F4558435F52455455524E3D2007
:10504000253038580A0000005B486172644661757B
:105050006C745D0A000000005B4275734661756CFC
:10506000745D0A005B55736167654661756C745DBC
:105070000A0000000000000000000000010203041C
:10508000060708090A733A25642D00002D633A25A6
:10509000642D00002D703A25642D00002D693A25FD
:1050A000642D00002D643A25642D00002D6F3A25F3
:1050B000642D0A00430000202020202020202020F2
:1050C00028282828282020202020202020202020B8
:1050D00020202020202020881010101010101010E8
:1050E000101010101010100404040404040404042C
:1050F00004101010101010104141414141410101B4
:10510000010101010101010101010101010101018F
:10511000010110101010101042424242424202029D
:10512000020202020202020202020202020202025F
:10513000020210101010200000000000000000000B
:10514000000000000000000000000000000000005F
:10515000000000000000000000000000000000004F
:10516000000000000000000000000000000000003F
:10517000000000000000000000000000000000002F
:10518000000000000000000000000000000000001F
:10519000000000000000000000000000000000000F
:1051A00000000000000000000000000000000000FF
:1051B00000000000000000232D302B2000686C4C04
:1051C000006566674546470030313233343536373F
:1051D0003839414243444546003031323334353664
:0A51E00037383961626364656600C8
:1051EC007856341294000020000000000024F400D3
:1051FC00320F0000640000002000000014000000CA
:10520C000000000000000000000000000000000092
:10521C000000000000000000000000000000000082
:10522C00B450000800000000000000000000000066
:10523C000000000000000000000000000000000062
:10524C000000000000000000000000000000000052
:10525C000000000000000000000000000000000042
:0C526C0020000020B65000083254769854
:040000050800018965
:00000001FF
